{
  "_format": "hh-sol-artifact-1",
  "contractName": "GovernanceToken",
  "sourceName": "contracts/GovernanceToken.sol",
  "abi": [
    {
      "inputs": [
        {
          "internalType": "uint256",
          "name": "_keepPercentage",
          "type": "uint256"
        }
      ],
      "stateMutability": "nonpayable",
      "type": "constructor"
    },
    {
      "inputs": [],
      "name": "CheckpointUnorderedInsertion",
      "type": "error"
    },
    {
      "inputs": [],
      "name": "ECDSAInvalidSignature",
      "type": "error"
    },
    {
      "inputs": [
        {
          "internalType": "uint256",
          "name": "length",
          "type": "uint256"
        }
      ],
      "name": "ECDSAInvalidSignatureLength",
      "type": "error"
    },
    {
      "inputs": [
        {
          "internalType": "bytes32",
          "name": "s",
          "type": "bytes32"
        }
      ],
      "name": "ECDSAInvalidSignatureS",
      "type": "error"
    },
    {
      "inputs": [
        {
          "internalType": "uint256",
          "name": "increasedSupply",
          "type": "uint256"
        },
        {
          "internalType": "uint256",
          "name": "cap",
          "type": "uint256"
        }
      ],
      "name": "ERC20ExceededSafeSupply",
      "type": "error"
    },
    {
      "inputs": [
        {
          "internalType": "address",
          "name": "spender",
          "type": "address"
        },
        {
          "internalType": "uint256",
          "name": "allowance",
          "type": "uint256"
        },
        {
          "internalType": "uint256",
          "name": "needed",
          "type": "uint256"
        }
      ],
      "name": "ERC20InsufficientAllowance",
      "type": "error"
    },
    {
      "inputs": [
        {
          "internalType": "address",
          "name": "sender",
          "type": "address"
        },
        {
          "internalType": "uint256",
          "name": "balance",
          "type": "uint256"
        },
        {
          "internalType": "uint256",
          "name": "needed",
          "type": "uint256"
        }
      ],
      "name": "ERC20InsufficientBalance",
      "type": "error"
    },
    {
      "inputs": [
        {
          "internalType": "address",
          "name": "approver",
          "type": "address"
        }
      ],
      "name": "ERC20InvalidApprover",
      "type": "error"
    },
    {
      "inputs": [
        {
          "internalType": "address",
          "name": "receiver",
          "type": "address"
        }
      ],
      "name": "ERC20InvalidReceiver",
      "type": "error"
    },
    {
      "inputs": [
        {
          "internalType": "address",
          "name": "sender",
          "type": "address"
        }
      ],
      "name": "ERC20InvalidSender",
      "type": "error"
    },
    {
      "inputs": [
        {
          "internalType": "address",
          "name": "spender",
          "type": "address"
        }
      ],
      "name": "ERC20InvalidSpender",
      "type": "error"
    },
    {
      "inputs": [
        {
          "internalType": "uint256",
          "name": "deadline",
          "type": "uint256"
        }
      ],
      "name": "ERC2612ExpiredSignature",
      "type": "error"
    },
    {
      "inputs": [
        {
          "internalType": "address",
          "name": "signer",
          "type": "address"
        },
        {
          "internalType": "address",
          "name": "owner",
          "type": "address"
        }
      ],
      "name": "ERC2612InvalidSigner",
      "type": "error"
    },
    {
      "inputs": [
        {
          "internalType": "uint256",
          "name": "timepoint",
          "type": "uint256"
        },
        {
          "internalType": "uint48",
          "name": "clock",
          "type": "uint48"
        }
      ],
      "name": "ERC5805FutureLookup",
      "type": "error"
    },
    {
      "inputs": [],
      "name": "ERC6372InconsistentClock",
      "type": "error"
    },
    {
      "inputs": [
        {
          "internalType": "address",
          "name": "account",
          "type": "address"
        },
        {
          "internalType": "uint256",
          "name": "currentNonce",
          "type": "uint256"
        }
      ],
      "name": "InvalidAccountNonce",
      "type": "error"
    },
    {
      "inputs": [],
      "name": "InvalidShortString",
      "type": "error"
    },
    {
      "inputs": [
        {
          "internalType": "uint8",
          "name": "bits",
          "type": "uint8"
        },
        {
          "internalType": "uint256",
          "name": "value",
          "type": "uint256"
        }
      ],
      "name": "SafeCastOverflowedUintDowncast",
      "type": "error"
    },
    {
      "inputs": [
        {
          "internalType": "string",
          "name": "str",
          "type": "string"
        }
      ],
      "name": "StringTooLong",
      "type": "error"
    },
    {
      "inputs": [
        {
          "internalType": "uint256",
          "name": "expiry",
          "type": "uint256"
        }
      ],
      "name": "VotesExpiredSignature",
      "type": "error"
    },
    {
      "anonymous": false,
      "inputs": [
        {
          "indexed": true,
          "internalType": "address",
          "name": "owner",
          "type": "address"
        },
        {
          "indexed": true,
          "internalType": "address",
          "name": "spender",
          "type": "address"
        },
        {
          "indexed": false,
          "internalType": "uint256",
          "name": "value",
          "type": "uint256"
        }
      ],
      "name": "Approval",
      "type": "event"
    },
    {
      "anonymous": false,
      "inputs": [
        {
          "indexed": true,
          "internalType": "address",
          "name": "delegator",
          "type": "address"
        },
        {
          "indexed": true,
          "internalType": "address",
          "name": "fromDelegate",
          "type": "address"
        },
        {
          "indexed": true,
          "internalType": "address",
          "name": "toDelegate",
          "type": "address"
        }
      ],
      "name": "DelegateChanged",
      "type": "event"
    },
    {
      "anonymous": false,
      "inputs": [
        {
          "indexed": true,
          "internalType": "address",
          "name": "delegate",
          "type": "address"
        },
        {
          "indexed": false,
          "internalType": "uint256",
          "name": "previousVotes",
          "type": "uint256"
        },
        {
          "indexed": false,
          "internalType": "uint256",
          "name": "newVotes",
          "type": "uint256"
        }
      ],
      "name": "DelegateVotesChanged",
      "type": "event"
    },
    {
      "anonymous": false,
      "inputs": [],
      "name": "EIP712DomainChanged",
      "type": "event"
    },
    {
      "anonymous": false,
      "inputs": [
        {
          "indexed": true,
          "internalType": "address",
          "name": "from",
          "type": "address"
        },
        {
          "indexed": false,
          "internalType": "uint256",
          "name": "amount",
          "type": "uint256"
        }
      ],
      "name": "TokenBurned",
      "type": "event"
    },
    {
      "anonymous": false,
      "inputs": [
        {
          "indexed": true,
          "internalType": "address",
          "name": "to",
          "type": "address"
        },
        {
          "indexed": false,
          "internalType": "uint256",
          "name": "amount",
          "type": "uint256"
        }
      ],
      "name": "TokenMinted",
      "type": "event"
    },
    {
      "anonymous": false,
      "inputs": [
        {
          "indexed": true,
          "internalType": "address",
          "name": "from",
          "type": "address"
        },
        {
          "indexed": true,
          "internalType": "address",
          "name": "to",
          "type": "address"
        },
        {
          "indexed": false,
          "internalType": "uint256",
          "name": "amount",
          "type": "uint256"
        }
      ],
      "name": "TokenTransfer",
      "type": "event"
    },
    {
      "anonymous": false,
      "inputs": [
        {
          "indexed": true,
          "internalType": "address",
          "name": "from",
          "type": "address"
        },
        {
          "indexed": true,
          "internalType": "address",
          "name": "to",
          "type": "address"
        },
        {
          "indexed": false,
          "internalType": "uint256",
          "name": "value",
          "type": "uint256"
        }
      ],
      "name": "Transfer",
      "type": "event"
    },
    {
      "inputs": [],
      "name": "CLOCK_MODE",
      "outputs": [
        {
          "internalType": "string",
          "name": "",
          "type": "string"
        }
      ],
      "stateMutability": "view",
      "type": "function"
    },
    {
      "inputs": [],
      "name": "DOMAIN_SEPARATOR",
      "outputs": [
        {
          "internalType": "bytes32",
          "name": "",
          "type": "bytes32"
        }
      ],
      "stateMutability": "view",
      "type": "function"
    },
    {
      "inputs": [
        {
          "internalType": "address",
          "name": "owner",
          "type": "address"
        },
        {
          "internalType": "address",
          "name": "spender",
          "type": "address"
        }
      ],
      "name": "allowance",
      "outputs": [
        {
          "internalType": "uint256",
          "name": "",
          "type": "uint256"
        }
      ],
      "stateMutability": "view",
      "type": "function"
    },
    {
      "inputs": [
        {
          "internalType": "address",
          "name": "spender",
          "type": "address"
        },
        {
          "internalType": "uint256",
          "name": "value",
          "type": "uint256"
        }
      ],
      "name": "approve",
      "outputs": [
        {
          "internalType": "bool",
          "name": "",
          "type": "bool"
        }
      ],
      "stateMutability": "nonpayable",
      "type": "function"
    },
    {
      "inputs": [
        {
          "internalType": "address",
          "name": "account",
          "type": "address"
        }
      ],
      "name": "balanceOf",
      "outputs": [
        {
          "internalType": "uint256",
          "name": "",
          "type": "uint256"
        }
      ],
      "stateMutability": "view",
      "type": "function"
    },
    {
      "inputs": [
        {
          "internalType": "address",
          "name": "account",
          "type": "address"
        },
        {
          "internalType": "uint32",
          "name": "pos",
          "type": "uint32"
        }
      ],
      "name": "checkpoints",
      "outputs": [
        {
          "components": [
            {
              "internalType": "uint48",
              "name": "_key",
              "type": "uint48"
            },
            {
              "internalType": "uint208",
              "name": "_value",
              "type": "uint208"
            }
          ],
          "internalType": "struct Checkpoints.Checkpoint208",
          "name": "",
          "type": "tuple"
        }
      ],
      "stateMutability": "view",
      "type": "function"
    },
    {
      "inputs": [],
      "name": "claimTokens",
      "outputs": [],
      "stateMutability": "nonpayable",
      "type": "function"
    },
    {
      "inputs": [],
      "name": "clock",
      "outputs": [
        {
          "internalType": "uint48",
          "name": "",
          "type": "uint48"
        }
      ],
      "stateMutability": "view",
      "type": "function"
    },
    {
      "inputs": [],
      "name": "decimals",
      "outputs": [
        {
          "internalType": "uint8",
          "name": "",
          "type": "uint8"
        }
      ],
      "stateMutability": "view",
      "type": "function"
    },
    {
      "inputs": [
        {
          "internalType": "address",
          "name": "delegatee",
          "type": "address"
        }
      ],
      "name": "delegate",
      "outputs": [],
      "stateMutability": "nonpayable",
      "type": "function"
    },
    {
      "inputs": [
        {
          "internalType": "address",
          "name": "delegatee",
          "type": "address"
        },
        {
          "internalType": "uint256",
          "name": "nonce",
          "type": "uint256"
        },
        {
          "internalType": "uint256",
          "name": "expiry",
          "type": "uint256"
        },
        {
          "internalType": "uint8",
          "name": "v",
          "type": "uint8"
        },
        {
          "internalType": "bytes32",
          "name": "r",
          "type": "bytes32"
        },
        {
          "internalType": "bytes32",
          "name": "s",
          "type": "bytes32"
        }
      ],
      "name": "delegateBySig",
      "outputs": [],
      "stateMutability": "nonpayable",
      "type": "function"
    },
    {
      "inputs": [
        {
          "internalType": "address",
          "name": "account",
          "type": "address"
        }
      ],
      "name": "delegates",
      "outputs": [
        {
          "internalType": "address",
          "name": "",
          "type": "address"
        }
      ],
      "stateMutability": "view",
      "type": "function"
    },
    {
      "inputs": [],
      "name": "eip712Domain",
      "outputs": [
        {
          "internalType": "bytes1",
          "name": "fields",
          "type": "bytes1"
        },
        {
          "internalType": "string",
          "name": "name",
          "type": "string"
        },
        {
          "internalType": "string",
          "name": "version",
          "type": "string"
        },
        {
          "internalType": "uint256",
          "name": "chainId",
          "type": "uint256"
        },
        {
          "internalType": "address",
          "name": "verifyingContract",
          "type": "address"
        },
        {
          "internalType": "bytes32",
          "name": "salt",
          "type": "bytes32"
        },
        {
          "internalType": "uint256[]",
          "name": "extensions",
          "type": "uint256[]"
        }
      ],
      "stateMutability": "view",
      "type": "function"
    },
    {
      "inputs": [
        {
          "internalType": "uint256",
          "name": "timepoint",
          "type": "uint256"
        }
      ],
      "name": "getPastTotalSupply",
      "outputs": [
        {
          "internalType": "uint256",
          "name": "",
          "type": "uint256"
        }
      ],
      "stateMutability": "view",
      "type": "function"
    },
    {
      "inputs": [
        {
          "internalType": "address",
          "name": "account",
          "type": "address"
        },
        {
          "internalType": "uint256",
          "name": "timepoint",
          "type": "uint256"
        }
      ],
      "name": "getPastVotes",
      "outputs": [
        {
          "internalType": "uint256",
          "name": "",
          "type": "uint256"
        }
      ],
      "stateMutability": "view",
      "type": "function"
    },
    {
      "inputs": [],
      "name": "getTokenHolders",
      "outputs": [
        {
          "internalType": "uint256",
          "name": "",
          "type": "uint256"
        }
      ],
      "stateMutability": "view",
      "type": "function"
    },
    {
      "inputs": [
        {
          "internalType": "address",
          "name": "account",
          "type": "address"
        }
      ],
      "name": "getVotes",
      "outputs": [
        {
          "internalType": "uint256",
          "name": "",
          "type": "uint256"
        }
      ],
      "stateMutability": "view",
      "type": "function"
    },
    {
      "inputs": [],
      "name": "name",
      "outputs": [
        {
          "internalType": "string",
          "name": "",
          "type": "string"
        }
      ],
      "stateMutability": "view",
      "type": "function"
    },
    {
      "inputs": [
        {
          "internalType": "address",
          "name": "owner",
          "type": "address"
        }
      ],
      "name": "nonces",
      "outputs": [
        {
          "internalType": "uint256",
          "name": "",
          "type": "uint256"
        }
      ],
      "stateMutability": "view",
      "type": "function"
    },
    {
      "inputs": [
        {
          "internalType": "address",
          "name": "account",
          "type": "address"
        }
      ],
      "name": "numCheckpoints",
      "outputs": [
        {
          "internalType": "uint32",
          "name": "",
          "type": "uint32"
        }
      ],
      "stateMutability": "view",
      "type": "function"
    },
    {
      "inputs": [
        {
          "internalType": "address",
          "name": "owner",
          "type": "address"
        },
        {
          "internalType": "address",
          "name": "spender",
          "type": "address"
        },
        {
          "internalType": "uint256",
          "name": "value",
          "type": "uint256"
        },
        {
          "internalType": "uint256",
          "name": "deadline",
          "type": "uint256"
        },
        {
          "internalType": "uint8",
          "name": "v",
          "type": "uint8"
        },
        {
          "internalType": "bytes32",
          "name": "r",
          "type": "bytes32"
        },
        {
          "internalType": "bytes32",
          "name": "s",
          "type": "bytes32"
        }
      ],
      "name": "permit",
      "outputs": [],
      "stateMutability": "nonpayable",
      "type": "function"
    },
    {
      "inputs": [
        {
          "internalType": "address",
          "name": "",
          "type": "address"
        }
      ],
      "name": "s_claimedTokens",
      "outputs": [
        {
          "internalType": "bool",
          "name": "",
          "type": "bool"
        }
      ],
      "stateMutability": "view",
      "type": "function"
    },
    {
      "inputs": [
        {
          "internalType": "uint256",
          "name": "",
          "type": "uint256"
        }
      ],
      "name": "s_holders",
      "outputs": [
        {
          "internalType": "address",
          "name": "",
          "type": "address"
        }
      ],
      "stateMutability": "view",
      "type": "function"
    },
    {
      "inputs": [],
      "name": "symbol",
      "outputs": [
        {
          "internalType": "string",
          "name": "",
          "type": "string"
        }
      ],
      "stateMutability": "view",
      "type": "function"
    },
    {
      "inputs": [],
      "name": "totalSupply",
      "outputs": [
        {
          "internalType": "uint256",
          "name": "",
          "type": "uint256"
        }
      ],
      "stateMutability": "view",
      "type": "function"
    },
    {
      "inputs": [
        {
          "internalType": "address",
          "name": "to",
          "type": "address"
        },
        {
          "internalType": "uint256",
          "name": "value",
          "type": "uint256"
        }
      ],
      "name": "transfer",
      "outputs": [
        {
          "internalType": "bool",
          "name": "",
          "type": "bool"
        }
      ],
      "stateMutability": "nonpayable",
      "type": "function"
    },
    {
      "inputs": [
        {
          "internalType": "address",
          "name": "from",
          "type": "address"
        },
        {
          "internalType": "address",
          "name": "to",
          "type": "address"
        },
        {
          "internalType": "uint256",
          "name": "value",
          "type": "uint256"
        }
      ],
      "name": "transferFrom",
      "outputs": [
        {
          "internalType": "bool",
          "name": "",
          "type": "bool"
        }
      ],
      "stateMutability": "nonpayable",
      "type": "function"
    }
  ],
  "bytecode": "0x6101608060405234620000885760206200395b80380380916200002282620000a3565b84391262000088576200003690516200022c565b60405161236190816200159a823960805181611348015260a05181611403015260c05181611312015260e05181611397015261010051816113bd01526101205181610867015261014051816108910152f35b600080fd5b634e487b7160e01b600052604160045260246000fd5b601f01601f1916610160908101906001600160401b03821190821017620000c957604052565b6200008d565b604081019081106001600160401b03821117620000c957604052565b60405190620000fa82620000cf565b565b604051906200010b82620000cf565b60038252565b604051906200012082620000cf565b60018252565b604051906200013582620000cf565b600782526626bcaa37b5b2b760c91b6020830152565b634e487b7160e01b600052601160045260246000fd5b9069d3c21bcecceda100000091808302928304036200017c57565b6200014b565b9069d3c21bcecceda10000009182039182116200017c57565b6000198101919082116200017c57565b600c5468010000000000000000811015620000c9576001810180600c558110156200021657600c6000527fdf6966c971051c3d54ec59162606531493a51404a002842f56009d7e5cf4a8c70180546001600160a01b0319166001600160a01b03909216919091179055565b634e487b7160e01b600052603260045260246000fd5b6200023662000126565b6200024062000126565b906200024b620000fc565b906020624d544b60e81b818401526200026362000111565b603160f81b828201908152855190959194916001600160401b038211620000c9576200029c826200029660035462000416565b62000453565b8390601f8311600114620003725793620002f3620003539894620002ea85620003429a966200033b9a966200035b9e9a60009262000366575b50508160011b916000199060031b1c19161790565b600355620005bf565b620002fe82620008fb565b610120526200030d8362000a0b565b61014052815191012060e052519020610100524660a0526200032e62000b18565b6080523060c05262000161565b6064900490565b6200034d33620006ad565b62000182565b3033620007c3565b620000fa33620001ab565b015190503880620002d5565b6003600052601f19831691907fc2575a0e9e593c00f959f8c92f12db2869c3395a3b0502d05e2516446f71f85b9260005b818110620003fe5750946001856200033b99956200035b9d9995620002f395620003429d99620003539f9b10620003e4575b505050811b01600355620005bf565b015160001960f88460031b161c19169055388080620003d5565b929387600181928786015181550195019301620003a3565b90600182811c9216801562000448575b60208310146200043257565b634e487b7160e01b600052602260045260246000fd5b91607f169162000426565b601f811162000460575050565b60009060036000526020600020906020601f850160051c83019410620004a3575b601f0160051c01915b8281106200049757505050565b8181556001016200048a565b909250829062000481565b601f8111620004bb575050565b60009060046000526020600020906020601f850160051c83019410620004fe575b601f0160051c01915b828110620004f257505050565b818155600101620004e5565b9092508290620004dc565b601f811162000516575050565b60009060056000526020600020906020601f850160051c8301941062000559575b601f0160051c01915b8281106200054d57505050565b81815560010162000540565b909250829062000537565b601f811162000571575050565b60009060066000526020600020906020601f850160051c83019410620005b4575b601f0160051c01915b828110620005a857505050565b8181556001016200059b565b909250829062000592565b80519091906001600160401b038111620000c957620005eb81620005e560045462000416565b620004ae565b602080601f83116001146200062557508190620006209394600092620003665750508160011b916000199060031b1c19161790565b600455565b6004600052601f198316949091907f8a35acfbc15ff81a39ae7d344fd709f28e8600b4aa8c65c6b64bfe7fe36bd19b926000905b878210620006945750508360019596106200067a575b505050811b01600455565b015160001960f88460031b161c191690553880806200066f565b8060018596829496860151815501950193019062000659565b6001600160a01b038116908115620007aa5760025469d3c21bcecceda1000000908181018091116200017c576002556001600160a01b03821660009081526020819052604090209081540190558160006000805160206200391b833981519152604051806200072a819069d3c21bcecceda1000000602083019252565b0390a36002546001600160d01b0381116200078357506200074b9062000c25565b60405169d3c21bcecceda100000081527fb9144c96c86541f6fa89c9f2f02495cccf4b08cd6643e26d34ee00aa586558a890602090a2565b604051630e58ae9360e11b815260048101919091526001600160d01b036024820152604490fd5b60405163ec442f0560e01b815260006004820152602490fd5b916001600160a01b0380841692908315620008e2578116938415620007aa576001600160a01b038116600090815260208190526040902054838110620008b35783620008ae9381937fd0ed88a3f042c6bbb1e3ea406079b5f2b4b198afccaa535d837f4c63abbc4de6966200089e9403620008508260018060a01b03166000526000602052604060002090565b556001600160a01b038216600090815260208190526040902083815401905588886000805160206200391b833981519152604051806200089588829190602083019252565b0390a362000d13565b6040519081529081906020820190565b0390a3565b60405163391434e360e21b81526001600160a01b03929092166004830152602482015260448101839052606490fd5b604051634b637e8f60e11b815260006004820152602490fd5b90815160208082106000146200091c57505090620009199062000ba8565b90565b6001600160401b038211620000c95762000943826200093d60055462000416565b62000509565b602090601f83116001146200098057508190620009789394600092620003665750508160011b916000199060031b1c19161790565b60055560ff90565b6005600052601f198316949091907f036b6384b5eca791c62761152d0c79bb0604c104a5fb6f4eb0703f3154bb3db0926000905b878210620009f2575050836001959610620009d8575b505050811b0160055560ff90565b015160001960f88460031b161c19169055388080620009ca565b80600185968294968601518155019501930190620009b4565b908151602080821060001462000a2957505090620009199062000ba8565b6001600160401b038211620000c95762000a508262000a4a60065462000416565b62000564565b602090601f831160011462000a8d5750819062000a859394600092620003665750508160011b916000199060031b1c19161790565b60065560ff90565b6006600052601f198316949091907ff652222313e28459528d920b65115c16c04f3efc82aaedc97be59f3f377c0d3f926000905b87821062000aff57505083600195961062000ae5575b505050811b0160065560ff90565b015160001960f88460031b161c1916905538808062000ad7565b8060018596829496860151815501950193019062000ac1565b60e051610100516040519060208201927f8b73c3c69bb8fe3d512ecc4cf759cc79239f7b179b0ffacaa9a75d522b39400f8452604083015260608201524660808201523060a082015260a0815260c0810181811060018060401b03821117620000c95760405251902090565b60208151910151906020811062000b99575090565b6000199060200360031b1b1690565b601f81511162000bc35762000bbd8162000b84565b90511790565b6040519063305a27a960e01b82528160208060048301528251908160248401526000935b82851062000c0b575050604492506000838284010152601f80199101168101030190fd5b848101820151868601604401529381019385935062000be7565b65ffffffffffff9081431162000cf457600a548062000cc1575062000c5d620000fa9262000c54600062001520565b90431662001357565b50506001600160a01b0390811690811562000caf575b60086020527f5eff886ea0ce6ca488a3d6e336d6c0f75f46d19b42c06ce5ee98e42c96d256c75460009283526040909220548116911662000fdb565b62000cb962000e2c565b505062000c73565b916000199083828101116200017c5762000c5462000c5d92620000fa95600a600052602060002001015460301c62001520565b6040516306dfcc6560e41b815260306004820152436024820152604490fd5b9091906001600160a01b0390811690811562000d79575b80620000fa941691821562000d5c575b600052600860205280604060002054169160005260406000205416906200112d565b62000d7162000d6b8562000df8565b62000ea8565b505062000d3a565b62000d848362000df8565b65ffffffffffff9081431162000cf457600a548062000dc157509462000db6839262000c54620000fa98600062001542565b505094505062000d2a565b9590916000199087828101116200017c5762000c54859462000db693620000fa9a600a600052602060002001015460301c62001542565b6001600160d01b039081811162000e0d571690565b604490604051906306dfcc6560e41b825260d060048301526024820152fd5b65ffffffffffff80431162000cf457600a548062000e79575060005b6001600160d01b0390811669d3c21bcecceda0ffffff19019081116200017c5762000e7591431662001357565b9091565b6000199080828101116200017c57600a60005201600080516020620038fb833981519152015460301c62000e48565b65ffffffffffff80431162000cf457600a548062000ed2575062000c5462000e759260006200157f565b6000199281848101116200017c57600a6000529201600080516020620038fb833981519152015462000e759262000c549160301c6200157f565b65ffffffffffff9081431162000cf45780548062000f5657506000905b6001600160d01b0391821669d3c21bcecceda1000000019182116200017c5762000e759243169062001453565b6000199080828101116200017c5782600052602060002001015460301c9062000f29565b65ffffffffffff9081431162000cf45780548062000fae575062000fa462000e7593600062001542565b9143169062001453565b6000199381858101116200017c5762000e759462000fa49284600052602060002001015460301c62001542565b6001600160a01b03808316929190811690818414158062001124575b62001003575b50505050565b8162001071575b5050816200101b575b808062000ffd565b6001600160a01b031660009081526009602052604090206000805160206200393b833981519152906200104e9062000f0c565b604080516001600160d01b039384168152919092166020820152a2388062001013565b6001600160a01b0316600090815260096020526040902065ffffffffffff9081431162000cf457805480620010e657506000805160206200393b83398151915291620010c39162000fa460006200155c565b604080516001600160d01b039384168152919092166020820152a238806200100a565b916000199183838101116200017c5762000fa4620010c3936000805160206200393b8339815191529583600052602060002001015460301c6200155c565b50600162000ff7565b6001600160a01b0380831693929190811690818514158062001295575b62001157575b5050505050565b81620011d3575b5050826200116f575b808062001150565b6001600160a01b031660009081526009602052604090206000805160206200393b83398151915291620011af91620011a8909162000df8565b9062000f7a565b604080516001600160d01b039384168152919092166020820152a238808062001167565b6001600160a01b03166000908152600960205260409020620011f58462000df8565b9065ffffffffffff9081431162000cf45780548062001255575090620012329162000fa46000805160206200393b8339815191529460006200157f565b604080516001600160d01b039384168152919092166020820152a238806200115e565b91906000199280848101116200017c576000805160206200393b83398151915294620012329462000fa49284600052602060002001015460301c6200157f565b508315156200114a565b600a549068010000000000000000821015620000c9576001820180600a558210156200021657600a60005280516020919091015160301b65ffffffffffff191665ffffffffffff9190911617600080516020620038fb83398151915290910155565b90815468010000000000000000811015620000c95760018101808455811015620002165760009283526020928390208251929093015160301b65ffffffffffff191665ffffffffffff9290921691909117910155565b600a5491929180156200142457620013736200138c916200019b565b600a600052600080516020620038fb8339815191520190565b9081549165ffffffffffff908184169183168083116200141257869203620013d457620013cd92509065ffffffffffff82549181199060301b169116179055565b60301c9190565b50506200140c90620013f7620013e9620000eb565b65ffffffffffff9092168252565b6001600160d01b03851660208201526200129f565b620013cd565b604051632520601d60e01b8152600490fd5b506200144d9062001438620013e9620000eb565b6001600160d01b03841660208201526200129f565b60009190565b80549293928015620014f6576200146e6200147b916200019b565b8260005260206000200190565b9182549265ffffffffffff918285169281168084116200141257879303620014bd5750620013cd92509065ffffffffffff82549181199060301b169116179055565b9150506200140c91620014e1620014d3620000eb565b65ffffffffffff9093168352565b6001600160d01b038616602083015262001301565b50906200144d916200150b620014d3620000eb565b6001600160d01b038516602083015262001301565b6001600160d01b0390811669d3c21bcecceda1000000019081116200017c5790565b6001600160d01b03918216908216019081116200017c5790565b6001600160d01b0390811669d3c21bcecceda0ffffff19019081116200017c5790565b6001600160d01b03918216908216039081116200017c579056fe6080604052600436101561001257600080fd5b60003560e01c806306fdde03146101c7578063095ea7b3146101c257806314f5f017146101bd57806318160ddd146101b857806323b872dd146101b3578063313ce567146101ae5780633644e515146101a95780633a46b1a8146101a457806348c54b9d1461019f5780634bf5d7e91461019a578063587cde1e146101955780635c19a95c146101905780636fcfff451461018b57806370a08231146101865780637ecebe001461018157806384b0196e1461017c578063876b1566146101775780638e539e8c1461017257806391ddadf41461016d57806395d89b41146101685780639ab24eb014610163578063a9059cbb1461015e578063c3cda52014610159578063d505accf14610154578063dd62ed3e1461014f578063f1127ed81461014a5763fe3f53eb1461014557600080fd5b610e9e565b610deb565b610d93565b610c5f565b610b96565b610b50565b610b07565b610a5f565b610a33565b610965565b610947565b61084c565b610812565b6107d9565b610771565b61074d565b610712565b610680565b6105e6565b6104fe565b6104db565b6104bf565b610412565b6103f4565b610399565b61033a565b610220565b919082519283825260005b8481106101f8575050826000602080949584010152601f8019910116010190565b6020818301810151848301820152016101d7565b90602061021d9281815201906101cc565b90565b34610309576000806003193601126103065760405190806003549061024482610ef3565b808552916020916001918281169081156102d95750600114610281575b61027d8661027181880382610fb8565b6040519182918261020c565b0390f35b9350600384527fc2575a0e9e593c00f959f8c92f12db2869c3395a3b0502d05e2516446f71f85b5b8385106102c6575050505081016020016102718261027d38610261565b80548686018401529382019381016102a9565b905086955061027d9693506020925061027194915060ff191682840152151560051b820101929338610261565b80fd5b600080fd5b600435906001600160a01b038216820361030957565b602435906001600160a01b038216820361030957565b346103095760403660031901126103095761036061035661030e565b6024359033611611565b602060405160018152f35b80548210156103835760005260206000200190600090565b634e487b7160e01b600052603260045260246000fd5b3461030957602036600319011261030957600435600c5481101561030957600c6000527fdf6966c971051c3d54ec59162606531493a51404a002842f56009d7e5cf4a8c701546040516001600160a01b039091168152602090f35b34610309576000366003190112610309576020600254604051908152f35b346103095760603660031901126103095761042b61030e565b610433610324565b6001600160a01b0382166000908152600160209081526040808320338452909152902060443591905492600019841061047d575b61047193506111ec565b60405160018152602090f35b8284106104995761049483610471950333836116c5565b610467565b604051637dc7a0d960e11b81523360048201526024810185905260448101849052606490fd5b3461030957600036600319011261030957602060405160128152f35b346103095760003660031901126103095760206104f661130f565b604051908152f35b346103095760403660031901126103095761051761030e565b6001600160a01b031660009081526009602052604081209061053a602435611429565b9180548293816005811161058c575b509060209461055892846118e5565b806105725750505b6040516001600160d01b039091168152f35b9161057e84929361146a565b92815220015460301c610560565b9461059686611751565b86039586116105e1576020956105589385875265ffffffffffff80838a8a20015416908516106000146105cf5750915b91925094610549565b9291506105db90611479565b906105c6565b610edd565b346103095760008060031936011261030657338152600b60205260ff60408220541661064257336000908152600b6020526040902061062c90805460ff19166001179055565b6106363330611066565b61063f33610fda565b80f35b60405162461bcd60e51b8152602060048201526016602482015275416c726561647920636c61696d656420746f6b656e7360501b6044820152606490fd5b346103095760003660031901126103095761069a436116ff565b65ffffffffffff806106ab436116ff565b169116036107005761027d6040516106c281610f43565b601d81527f6d6f64653d626c6f636b6e756d6265722666726f6d3d64656661756c7400000060208201526040519182916020835260208301906101cc565b6040516301bfc1c560e61b8152600490fd5b346103095760203660031901126103095760206001600160a01b038061073661030e565b166000526008825260406000205416604051908152f35b346103095760203660031901126103095761076f61076961030e565b33611487565b005b34610309576020366003190112610309576001600160a01b0361079261030e565b16600052600960205260406000205463ffffffff908181116107ba5760209160405191168152f35b604490604051906306dfcc6560e41b8252602060048301526024820152fd5b346103095760203660031901126103095760206104f66107f761030e565b6001600160a01b031660009081526020819052604090205490565b34610309576020366003190112610309576001600160a01b0361083361030e565b1660005260076020526020604060002054604051908152f35b3461030957600080600319360112610306576108ea9061088b7f0000000000000000000000000000000000000000000000000000000000000000611b79565b906108b57f0000000000000000000000000000000000000000000000000000000000000000611c7a565b90604051916108c383610f64565b8183526108f8602091604051968796600f60f81b885260e0602089015260e08801906101cc565b9086820360408801526101cc565b904660608601523060808601528260a086015284820360c0860152602080855193848152019401925b82811061093057505050500390f35b835185528695509381019392810192600101610921565b34610309576000366003190112610309576020600c54604051908152f35b3461030957602036600319011261030957610981600435611429565b600a549060008291600584116109d7575b61099c935061187c565b806109ae575060405160008152602090f35b6109b960209161146a565b600a600052600080516020612315833981519152015460301c610560565b91926109e281611751565b81039081116105e15761099c93600a60005265ffffffffffff808360008051602061231583398151915201541690851610600014610a21575091610992565b929150610a2d90611479565b90610992565b34610309576000366003190112610309576020610a4f436116ff565b65ffffffffffff60405191168152f35b346103095760008060031936011261030657604051908060045490610a8382610ef3565b808552916020916001918281169081156102d95750600114610aaf5761027d8661027181880382610fb8565b9350600484527f8a35acfbc15ff81a39ae7d344fd709f28e8600b4aa8c65c6b64bfe7fe36bd19b5b838510610af4575050505081016020016102718261027d38610261565b8054868601840152938201938101610ad7565b34610309576020366003190112610309576001600160a01b03610b2861030e565b166000526009602052602060018060d01b03610b476040600020611551565b16604051908152f35b3461030957604036600319011261030957610360610b6c61030e565b60243590336111ec565b6064359060ff8216820361030957565b6084359060ff8216820361030957565b346103095760c036600319011261030957610baf61030e565b60443590602435610bbe610b76565b834211610c4657610c3a61076f94610c41926040519060208201927fe48329057bfd03d55e49b547132e39cffd9c1820ad7b9d4c5307691425d15adf845260018060a01b0388166040840152866060840152608083015260808252610c2282610f80565b610c3560a435936084359351902061157d565b6115a3565b91826115bb565b611487565b604051632341d78760e11b815260048101859052602490fd5b346103095760e036600319011261030957610c7861030e565b610c80610324565b60443590606435610c8f610b86565b814211610d7a576001600160a01b0385811660008181526007602090815260409182902080546001810190915582517f6e71edae12b1b97f4d1f60370fef10105fa2faae0126114a169c64845d6126c99281019283529283019390935292861660608201526080810187905260a081019190915260c080820194909452928352610d33929091610d2060e083610fb8565b610c3560c4359360a4359351902061157d565b6001600160a01b0384811690821603610d50575061076f92611611565b6040516325c0072360e11b81526001600160a01b0391821660048201529084166024820152604490fd5b60405163313c898160e11b815260048101839052602490fd5b34610309576040366003190112610309576020610de2610db161030e565b610db9610324565b6001600160a01b0391821660009081526001855260408082209290931681526020919091522090565b54604051908152f35b3461030957604036600319011261030957610e0461030e565b6024359063ffffffff821682036103095761027d91610e5491610e2561104d565b50610e2e61104d565b506001600160a01b03166000908152600960205260409020610e4e61104d565b5061036b565b5060405190610e6282610f43565b5465ffffffffffff811680835260309190911c60209283019081526040805192835290516001600160d01b031692820192909252918291820190565b34610309576020366003190112610309576001600160a01b03610ebf61030e565b16600052600b602052602060ff604060002054166040519015158152f35b634e487b7160e01b600052601160045260246000fd5b90600182811c92168015610f23575b6020831014610f0d57565b634e487b7160e01b600052602260045260246000fd5b91607f1691610f02565b634e487b7160e01b600052604160045260246000fd5b6040810190811067ffffffffffffffff821117610f5f57604052565b610f2d565b6020810190811067ffffffffffffffff821117610f5f57604052565b60a0810190811067ffffffffffffffff821117610f5f57604052565b60c0810190811067ffffffffffffffff821117610f5f57604052565b90601f8019910116810190811067ffffffffffffffff821117610f5f57604052565b600c54600160401b811015610f5f576001810180600c5581101561038357600c6000527fdf6966c971051c3d54ec59162606531493a51404a002842f56009d7e5cf4a8c70180546001600160a01b0319166001600160a01b03909216919091179055565b6040519061104b82610f43565b565b6040519061105a82610f43565b60006020838281520152565b91906001600160a01b038084169081156111d35782169182156111ba576001600160a01b0385166000908152602081905260409020549469021e19e0c9bab2400000808710611182576111459394959669021e19e0c9bab23fffff19016110df8360018060a01b03166000526000602052604060002090565b556001600160a01b038316600090815260208190526040902090815401905584847fddf252ad1be2c89b69c2b068fc378daa952ba7f163c4a11628f55a4df523b3ef6040518061113d819069021e19e0c9bab2400000602083019252565b0390a3611f19565b60405169021e19e0c9bab240000081527fd0ed88a3f042c6bbb1e3ea406079b5f2b4b198afccaa535d837f4c63abbc4de69080602081015b0390a3565b60405163391434e360e21b81526001600160a01b03831660048201526024810188905269021e19e0c9bab24000006044820152606490fd5b60405163ec442f0560e01b815260006004820152602490fd5b604051634b637e8f60e11b815260006004820152602490fd5b916001600160a01b03808416929083156111d35781169384156111ba576001600160a01b0381166000908152602081905260409020548381106112e0578361117d9381937fd0ed88a3f042c6bbb1e3ea406079b5f2b4b198afccaa535d837f4c63abbc4de6966112d094036112738260018060a01b03166000526000602052604060002090565b556001600160a01b038216600090815260208190526040902083815401905588887fddf252ad1be2c89b69c2b068fc378daa952ba7f163c4a11628f55a4df523b3ef604051806112c888829190602083019252565b0390a3611fe7565b6040519081529081906020820190565b60405163391434e360e21b81526001600160a01b03929092166004830152602482015260448101839052606490fd5b307f00000000000000000000000000000000000000000000000000000000000000006001600160a01b03161480611400575b1561136a577f000000000000000000000000000000000000000000000000000000000000000090565b60405160208101907f8b73c3c69bb8fe3d512ecc4cf759cc79239f7b179b0ffacaa9a75d522b39400f82527f000000000000000000000000000000000000000000000000000000000000000060408201527f000000000000000000000000000000000000000000000000000000000000000060608201524660808201523060a082015260a081526113fa81610f9c565b51902090565b507f00000000000000000000000000000000000000000000000000000000000000004614611341565b65ffffffffffff611439436116ff565b168082101561144c575061021d906116ff565b6044925060405191637669fc0f60e11b835260048301526024820152fd5b6000198101919082116105e157565b90600182018092116105e157565b6001600160a01b03818116600081815260086020526040812080548685166001600160a01b03198216811790925561104b969416946115049390928691907f3134e8a2e6d97e929a7e54011ea5485d7d196dd5f0ba4d4ef95803e8e3fc257f9080a46001600160a01b031660009081526020819052604090205490565b91611a64565b600a54806115185750600090565b806000198101116105e157600a6000527fc65a7bb8d6351c1cf70c95a316cc6a92839c986682d98bc35f958f4883f9d2a7015460301c90565b80548061155f575050600090565b6000199181838101116105e157600052602060002001015460301c90565b60429061158861130f565b906040519161190160f01b8352600283015260228201522090565b9161021d93916115b293611d3a565b90929192611dea565b6001600160a01b038116600090815260076020526040902080546001810190915590918190036115e9575050565b6040516301d4b62360e61b81526001600160a01b039092166004830152602482015260449150fd5b6001600160a01b0380821692919083156116ac57821693841561169357806116897f8c5be1e5ebec7d5bd14f71427d1e84f3dd0314c0f7b2291e5b200ac8c7c3b9259461167260209560018060a01b03166000526001602052604060002090565b9060018060a01b0316600052602052604060002090565b55604051908152a3565b604051634a1406b160e11b815260006004820152602490fd5b60405163e602df0560e01b815260006004820152602490fd5b906001600160a01b03808316156116ac57811615611693576116726116fc9260018060a01b03166000526001602052604060002090565b55565b65ffffffffffff90818111611712571690565b604490604051906306dfcc6560e41b8252603060048301526024820152fd5b811561173b570490565b634e487b7160e01b600052601260045260246000fd5b600181111561021d57600181600160801b81101561186a575b6118126118086117fe6117f46117ea6117e061181e97600488600160401b6118199a101561185d575b640100000000811015611850575b62010000811015611843575b610100811015611837575b601081101561182b575b1015611823575b60030260011c6117d9818b611731565b0160011c90565b6117d9818a611731565b6117d98189611731565b6117d98188611731565b6117d98187611731565b6117d98186611731565b8093611731565b821190565b900390565b60011b6117c9565b811c9160021b916117c2565b60081c91811b916117b8565b60101c9160081b916117ad565b60201c9160101b916117a1565b60401c9160201b91611793565b50600160401b9050608082901c61176a565b905b82811061188a57505090565b90918082169080831860011c82018092116105e157600a60005265ffffffffffff8083600080516020612315833981519152015416908516106000146118d35750915b9061187e565b9291506118df90611479565b906118cd565b91905b8382106118f55750505090565b9091928083169080841860011c82018092116105e15760008581526020902082015465ffffffffffff90811690841610156119345750925b91906118e8565b93925061194090611479565b9161192d565b6001600160a01b038083169291908116908184141580611a5c575b61196c575b50505050565b816119d3575b505081611981575b8080611966565b6001600160a01b03166000908152600960205260409020600080516020612335833981519152906119b190611eaa565b604080516001600160d01b039384168152919092166020820152a2388061197a565b6001600160a01b031660009081526009602052604090206119f3436116ff565b6001600160d01b039069021e19e0c9bab23fffff1982611a1285611551565b1601928284116105e15760008051602061233583398151915293611a5292611a3992612258565b6040805192851683529316602082015291829190820190565b0390a23880611972565b506001611961565b6001600160a01b03808316939291908116908185141580611b70575b611a8c575b5050505050565b81611aff575b505082611aa1575b8080611a85565b6001600160a01b0316600090815260096020526040902060008051602061233583398151915291611adc91611ad69091611e77565b90611ee7565b604080516001600160d01b039384168152919092166020820152a2388080611a9a565b6001600160a01b03166000908152600960205260409020611b1f84611e77565b611b28436116ff565b6001600160d01b03918280611b3c86611551565b1691169003928284116105e15760008051602061233583398151915293611b6692611a3992612258565b0390a23880611a92565b50831515611a80565b60ff8114611bb75760ff811690601f8211611ba55760405191611b9b83610f43565b8252602082015290565b604051632cd44ac360e21b8152600490fd5b50604051600554816000611bca83610ef3565b80835292602090600190818116908115611c565750600114611bf5575b505061021d92500382610fb8565b91509260056000527f036b6384b5eca791c62761152d0c79bb0604c104a5fb6f4eb0703f3154bb3db0936000925b828410611c3e575061021d9450505081016020013880611be7565b85548785018301529485019486945092810192611c23565b9150506020925061021d94915060ff191682840152151560051b8201013880611be7565b60ff8114611c9c5760ff811690601f8211611ba55760405191611b9b83610f43565b50604051600654816000611caf83610ef3565b80835292602090600190818116908115611c565750600114611cd957505061021d92500382610fb8565b91509260066000527ff652222313e28459528d920b65115c16c04f3efc82aaedc97be59f3f377c0d3f936000925b828410611d22575061021d9450505081016020013880611be7565b85548785018301529485019486945092810192611d07565b91907f7fffffffffffffffffffffffffffffff5d576e7357a4501ddfe92f46681b20a08411611dbe57926020929160ff608095604051948552168484015260408301526060820152600092839182805260015afa15611db25780516001600160a01b03811615611da957918190565b50809160019190565b604051903d90823e3d90fd5b50505060009160039190565b60041115611dd457565b634e487b7160e01b600052602160045260246000fd5b611df381611dca565b80611dfc575050565b611e0581611dca565b60018103611e1f5760405163f645eedf60e01b8152600490fd5b611e2881611dca565b60028103611e495760405163fce698f760e01b815260048101839052602490fd5b80611e55600392611dca565b14611e5d5750565b6040516335e2f38360e21b81526004810191909152602490fd5b6001600160d01b0390818111611e8b571690565b604490604051906306dfcc6560e41b825260d060048301526024820152fd5b611eb3436116ff565b6001600160d01b039069021e19e0c9bab240000082611ed185611551565b16019182116105e157611ee392612258565b9091565b90611ef1436116ff565b6001600160d01b03918280611f0586611551565b169116019182116105e157611ee392612258565b6001600160a01b039081169181908315611fa3575b16908115611f5c575b61104b9260005260086020528060406000205416916000526040600020541690611946565b611f65436116ff565b6001600160d01b03939069021e19e0c9bab23fffff1985611f8461150a565b16019485116105e15761104b94611f9a9161216f565b50509250611f37565b9050611fae436116ff565b6001600160d01b03919069021e19e0c9bab240000083611fcc61150a565b16019283116105e1578392611fe09161216f565b5050611f2e565b6001600160a01b03908116929181908415612073575b1690811561202b575b61104b9360005260086020528060406000205416916000526040600020541690611a64565b61203483611e77565b9361203e436116ff565b6001600160d01b0395868061205161150a565b16911690039586116105e15761104b9561206a9161216f565b50509350612006565b905061207e83611e77565b90612088436116ff565b6001600160d01b0392838061209b61150a565b169116019283116105e15783926120b19161216f565b5050611ffd565b600a5490600160401b821015610f5f576001820180600a5582101561038357600a600052805160209091015160301b65ffffffffffff191665ffffffffffff919091161760008051602061231583398151915290910155565b8054600160401b811015610f5f5761212e9160018201815561036b565b61215957815160209092015160301b65ffffffffffff191665ffffffffffff92909216919091179055565b634e487b7160e01b600052600060045260246000fd5b600a54919291801561222e5761218761219f9161146a565b600a6000526000805160206123158339815191520190565b9081549165ffffffffffff9081841691831680831161221c578692036121e4576121dd92509065ffffffffffff82549181199060301b169116179055565b60301c9190565b5050612217906122036121f561103e565b65ffffffffffff9092168252565b6001600160d01b03851660208201526120b8565b6121dd565b604051632520601d60e01b8152600490fd5b506122529061223e6121f561103e565b6001600160d01b03841660208201526120b8565b60009190565b805492939280156122ef5761226f61227c9161146a565b8260005260206000200190565b9182549265ffffffffffff9182851692811680841161221c578793036122bb57506121dd92509065ffffffffffff82549181199060301b169116179055565b915050612217916122db6122cd61103e565b65ffffffffffff9093168352565b6001600160d01b0386166020830152612111565b5090612252916123006122cd61103e565b6001600160d01b038516602083015261211156fec65a7bb8d6351c1cf70c95a316cc6a92839c986682d98bc35f958f4883f9d2a8dec2bacdd2f05b59de34da9b523dff8be42e5e38e818c82fdb0bae774387a724a164736f6c6343000816000ac65a7bb8d6351c1cf70c95a316cc6a92839c986682d98bc35f958f4883f9d2a8ddf252ad1be2c89b69c2b068fc378daa952ba7f163c4a11628f55a4df523b3efdec2bacdd2f05b59de34da9b523dff8be42e5e38e818c82fdb0bae774387a724",
  "linkReferences": {},
  "deployedLinkReferences": {}
}