{
  "_format": "hh-sol-artifact-1",
  "contractName": "MyGovernor",
  "sourceName": "contracts/MyGovernor.sol",
  "abi": [
    {
      "inputs": [
        {
          "internalType": "contract IVotes",
          "name": "_token",
          "type": "address"
        },
        {
          "internalType": "contract TimelockController",
          "name": "_timelock",
          "type": "address"
        },
        {
          "internalType": "uint48",
          "name": "_votingDelay",
          "type": "uint48"
        },
        {
          "internalType": "uint32",
          "name": "_votingPeriod",
          "type": "uint32"
        },
        {
          "internalType": "uint256",
          "name": "_quorumPercentage",
          "type": "uint256"
        }
      ],
      "stateMutability": "nonpayable",
      "type": "constructor"
    },
    {
      "inputs": [],
      "name": "CheckpointUnorderedInsertion",
      "type": "error"
    },
    {
      "inputs": [],
      "name": "FailedCall",
      "type": "error"
    },
    {
      "inputs": [
        {
          "internalType": "address",
          "name": "voter",
          "type": "address"
        }
      ],
      "name": "GovernorAlreadyCastVote",
      "type": "error"
    },
    {
      "inputs": [
        {
          "internalType": "uint256",
          "name": "proposalId",
          "type": "uint256"
        }
      ],
      "name": "GovernorAlreadyQueuedProposal",
      "type": "error"
    },
    {
      "inputs": [],
      "name": "GovernorDisabledDeposit",
      "type": "error"
    },
    {
      "inputs": [
        {
          "internalType": "address",
          "name": "proposer",
          "type": "address"
        },
        {
          "internalType": "uint256",
          "name": "votes",
          "type": "uint256"
        },
        {
          "internalType": "uint256",
          "name": "threshold",
          "type": "uint256"
        }
      ],
      "name": "GovernorInsufficientProposerVotes",
      "type": "error"
    },
    {
      "inputs": [
        {
          "internalType": "uint256",
          "name": "targets",
          "type": "uint256"
        },
        {
          "internalType": "uint256",
          "name": "calldatas",
          "type": "uint256"
        },
        {
          "internalType": "uint256",
          "name": "values",
          "type": "uint256"
        }
      ],
      "name": "GovernorInvalidProposalLength",
      "type": "error"
    },
    {
      "inputs": [
        {
          "internalType": "uint256",
          "name": "quorumNumerator",
          "type": "uint256"
        },
        {
          "internalType": "uint256",
          "name": "quorumDenominator",
          "type": "uint256"
        }
      ],
      "name": "GovernorInvalidQuorumFraction",
      "type": "error"
    },
    {
      "inputs": [
        {
          "internalType": "address",
          "name": "voter",
          "type": "address"
        }
      ],
      "name": "GovernorInvalidSignature",
      "type": "error"
    },
    {
      "inputs": [],
      "name": "GovernorInvalidVoteParams",
      "type": "error"
    },
    {
      "inputs": [],
      "name": "GovernorInvalidVoteType",
      "type": "error"
    },
    {
      "inputs": [
        {
          "internalType": "uint256",
          "name": "votingPeriod",
          "type": "uint256"
        }
      ],
      "name": "GovernorInvalidVotingPeriod",
      "type": "error"
    },
    {
      "inputs": [
        {
          "internalType": "uint256",
          "name": "proposalId",
          "type": "uint256"
        }
      ],
      "name": "GovernorNonexistentProposal",
      "type": "error"
    },
    {
      "inputs": [
        {
          "internalType": "uint256",
          "name": "proposalId",
          "type": "uint256"
        }
      ],
      "name": "GovernorNotQueuedProposal",
      "type": "error"
    },
    {
      "inputs": [
        {
          "internalType": "address",
          "name": "account",
          "type": "address"
        }
      ],
      "name": "GovernorOnlyExecutor",
      "type": "error"
    },
    {
      "inputs": [
        {
          "internalType": "address",
          "name": "account",
          "type": "address"
        }
      ],
      "name": "GovernorOnlyProposer",
      "type": "error"
    },
    {
      "inputs": [],
      "name": "GovernorQueueNotImplemented",
      "type": "error"
    },
    {
      "inputs": [
        {
          "internalType": "address",
          "name": "proposer",
          "type": "address"
        }
      ],
      "name": "GovernorRestrictedProposer",
      "type": "error"
    },
    {
      "inputs": [
        {
          "internalType": "uint256",
          "name": "proposalId",
          "type": "uint256"
        },
        {
          "internalType": "enum IGovernor.ProposalState",
          "name": "current",
          "type": "uint8"
        },
        {
          "internalType": "bytes32",
          "name": "expectedStates",
          "type": "bytes32"
        }
      ],
      "name": "GovernorUnexpectedProposalState",
      "type": "error"
    },
    {
      "inputs": [
        {
          "internalType": "address",
          "name": "account",
          "type": "address"
        },
        {
          "internalType": "uint256",
          "name": "currentNonce",
          "type": "uint256"
        }
      ],
      "name": "InvalidAccountNonce",
      "type": "error"
    },
    {
      "inputs": [],
      "name": "InvalidShortString",
      "type": "error"
    },
    {
      "inputs": [
        {
          "internalType": "uint8",
          "name": "bits",
          "type": "uint8"
        },
        {
          "internalType": "uint256",
          "name": "value",
          "type": "uint256"
        }
      ],
      "name": "SafeCastOverflowedUintDowncast",
      "type": "error"
    },
    {
      "inputs": [
        {
          "internalType": "string",
          "name": "str",
          "type": "string"
        }
      ],
      "name": "StringTooLong",
      "type": "error"
    },
    {
      "anonymous": false,
      "inputs": [],
      "name": "EIP712DomainChanged",
      "type": "event"
    },
    {
      "anonymous": false,
      "inputs": [
        {
          "indexed": false,
          "internalType": "uint256",
          "name": "proposalId",
          "type": "uint256"
        }
      ],
      "name": "ProposalCanceled",
      "type": "event"
    },
    {
      "anonymous": false,
      "inputs": [
        {
          "indexed": false,
          "internalType": "uint256",
          "name": "proposalId",
          "type": "uint256"
        },
        {
          "indexed": false,
          "internalType": "address",
          "name": "proposer",
          "type": "address"
        },
        {
          "indexed": false,
          "internalType": "address[]",
          "name": "targets",
          "type": "address[]"
        },
        {
          "indexed": false,
          "internalType": "uint256[]",
          "name": "values",
          "type": "uint256[]"
        },
        {
          "indexed": false,
          "internalType": "string[]",
          "name": "signatures",
          "type": "string[]"
        },
        {
          "indexed": false,
          "internalType": "bytes[]",
          "name": "calldatas",
          "type": "bytes[]"
        },
        {
          "indexed": false,
          "internalType": "uint256",
          "name": "voteStart",
          "type": "uint256"
        },
        {
          "indexed": false,
          "internalType": "uint256",
          "name": "voteEnd",
          "type": "uint256"
        },
        {
          "indexed": false,
          "internalType": "string",
          "name": "description",
          "type": "string"
        }
      ],
      "name": "ProposalCreated",
      "type": "event"
    },
    {
      "anonymous": false,
      "inputs": [
        {
          "indexed": false,
          "internalType": "uint256",
          "name": "proposalId",
          "type": "uint256"
        }
      ],
      "name": "ProposalExecuted",
      "type": "event"
    },
    {
      "anonymous": false,
      "inputs": [
        {
          "indexed": false,
          "internalType": "uint256",
          "name": "proposalId",
          "type": "uint256"
        },
        {
          "indexed": false,
          "internalType": "uint256",
          "name": "etaSeconds",
          "type": "uint256"
        }
      ],
      "name": "ProposalQueued",
      "type": "event"
    },
    {
      "anonymous": false,
      "inputs": [
        {
          "indexed": false,
          "internalType": "uint256",
          "name": "oldProposalThreshold",
          "type": "uint256"
        },
        {
          "indexed": false,
          "internalType": "uint256",
          "name": "newProposalThreshold",
          "type": "uint256"
        }
      ],
      "name": "ProposalThresholdSet",
      "type": "event"
    },
    {
      "anonymous": false,
      "inputs": [
        {
          "indexed": false,
          "internalType": "uint256",
          "name": "oldQuorumNumerator",
          "type": "uint256"
        },
        {
          "indexed": false,
          "internalType": "uint256",
          "name": "newQuorumNumerator",
          "type": "uint256"
        }
      ],
      "name": "QuorumNumeratorUpdated",
      "type": "event"
    },
    {
      "anonymous": false,
      "inputs": [
        {
          "indexed": false,
          "internalType": "address",
          "name": "oldTimelock",
          "type": "address"
        },
        {
          "indexed": false,
          "internalType": "address",
          "name": "newTimelock",
          "type": "address"
        }
      ],
      "name": "TimelockChange",
      "type": "event"
    },
    {
      "anonymous": false,
      "inputs": [
        {
          "indexed": true,
          "internalType": "address",
          "name": "voter",
          "type": "address"
        },
        {
          "indexed": false,
          "internalType": "uint256",
          "name": "proposalId",
          "type": "uint256"
        },
        {
          "indexed": false,
          "internalType": "uint8",
          "name": "support",
          "type": "uint8"
        },
        {
          "indexed": false,
          "internalType": "uint256",
          "name": "weight",
          "type": "uint256"
        },
        {
          "indexed": false,
          "internalType": "string",
          "name": "reason",
          "type": "string"
        }
      ],
      "name": "VoteCast",
      "type": "event"
    },
    {
      "anonymous": false,
      "inputs": [
        {
          "indexed": true,
          "internalType": "address",
          "name": "voter",
          "type": "address"
        },
        {
          "indexed": false,
          "internalType": "uint256",
          "name": "proposalId",
          "type": "uint256"
        },
        {
          "indexed": false,
          "internalType": "uint8",
          "name": "support",
          "type": "uint8"
        },
        {
          "indexed": false,
          "internalType": "uint256",
          "name": "weight",
          "type": "uint256"
        },
        {
          "indexed": false,
          "internalType": "string",
          "name": "reason",
          "type": "string"
        },
        {
          "indexed": false,
          "internalType": "bytes",
          "name": "params",
          "type": "bytes"
        }
      ],
      "name": "VoteCastWithParams",
      "type": "event"
    },
    {
      "anonymous": false,
      "inputs": [
        {
          "indexed": false,
          "internalType": "uint256",
          "name": "oldVotingDelay",
          "type": "uint256"
        },
        {
          "indexed": false,
          "internalType": "uint256",
          "name": "newVotingDelay",
          "type": "uint256"
        }
      ],
      "name": "VotingDelaySet",
      "type": "event"
    },
    {
      "anonymous": false,
      "inputs": [
        {
          "indexed": false,
          "internalType": "uint256",
          "name": "oldVotingPeriod",
          "type": "uint256"
        },
        {
          "indexed": false,
          "internalType": "uint256",
          "name": "newVotingPeriod",
          "type": "uint256"
        }
      ],
      "name": "VotingPeriodSet",
      "type": "event"
    },
    {
      "inputs": [],
      "name": "BALLOT_TYPEHASH",
      "outputs": [
        {
          "internalType": "bytes32",
          "name": "",
          "type": "bytes32"
        }
      ],
      "stateMutability": "view",
      "type": "function"
    },
    {
      "inputs": [],
      "name": "CLOCK_MODE",
      "outputs": [
        {
          "internalType": "string",
          "name": "",
          "type": "string"
        }
      ],
      "stateMutability": "view",
      "type": "function"
    },
    {
      "inputs": [],
      "name": "COUNTING_MODE",
      "outputs": [
        {
          "internalType": "string",
          "name": "",
          "type": "string"
        }
      ],
      "stateMutability": "pure",
      "type": "function"
    },
    {
      "inputs": [],
      "name": "EXTENDED_BALLOT_TYPEHASH",
      "outputs": [
        {
          "internalType": "bytes32",
          "name": "",
          "type": "bytes32"
        }
      ],
      "stateMutability": "view",
      "type": "function"
    },
    {
      "inputs": [
        {
          "internalType": "address[]",
          "name": "targets",
          "type": "address[]"
        },
        {
          "internalType": "uint256[]",
          "name": "values",
          "type": "uint256[]"
        },
        {
          "internalType": "bytes[]",
          "name": "calldatas",
          "type": "bytes[]"
        },
        {
          "internalType": "bytes32",
          "name": "descriptionHash",
          "type": "bytes32"
        }
      ],
      "name": "cancel",
      "outputs": [
        {
          "internalType": "uint256",
          "name": "",
          "type": "uint256"
        }
      ],
      "stateMutability": "nonpayable",
      "type": "function"
    },
    {
      "inputs": [
        {
          "internalType": "uint256",
          "name": "proposalId",
          "type": "uint256"
        },
        {
          "internalType": "uint8",
          "name": "support",
          "type": "uint8"
        }
      ],
      "name": "castVote",
      "outputs": [
        {
          "internalType": "uint256",
          "name": "",
          "type": "uint256"
        }
      ],
      "stateMutability": "nonpayable",
      "type": "function"
    },
    {
      "inputs": [
        {
          "internalType": "uint256",
          "name": "proposalId",
          "type": "uint256"
        },
        {
          "internalType": "uint8",
          "name": "support",
          "type": "uint8"
        },
        {
          "internalType": "address",
          "name": "voter",
          "type": "address"
        },
        {
          "internalType": "bytes",
          "name": "signature",
          "type": "bytes"
        }
      ],
      "name": "castVoteBySig",
      "outputs": [
        {
          "internalType": "uint256",
          "name": "",
          "type": "uint256"
        }
      ],
      "stateMutability": "nonpayable",
      "type": "function"
    },
    {
      "inputs": [
        {
          "internalType": "uint256",
          "name": "proposalId",
          "type": "uint256"
        },
        {
          "internalType": "uint8",
          "name": "support",
          "type": "uint8"
        },
        {
          "internalType": "string",
          "name": "reason",
          "type": "string"
        }
      ],
      "name": "castVoteWithReason",
      "outputs": [
        {
          "internalType": "uint256",
          "name": "",
          "type": "uint256"
        }
      ],
      "stateMutability": "nonpayable",
      "type": "function"
    },
    {
      "inputs": [
        {
          "internalType": "uint256",
          "name": "proposalId",
          "type": "uint256"
        },
        {
          "internalType": "uint8",
          "name": "support",
          "type": "uint8"
        },
        {
          "internalType": "string",
          "name": "reason",
          "type": "string"
        },
        {
          "internalType": "bytes",
          "name": "params",
          "type": "bytes"
        }
      ],
      "name": "castVoteWithReasonAndParams",
      "outputs": [
        {
          "internalType": "uint256",
          "name": "",
          "type": "uint256"
        }
      ],
      "stateMutability": "nonpayable",
      "type": "function"
    },
    {
      "inputs": [
        {
          "internalType": "uint256",
          "name": "proposalId",
          "type": "uint256"
        },
        {
          "internalType": "uint8",
          "name": "support",
          "type": "uint8"
        },
        {
          "internalType": "address",
          "name": "voter",
          "type": "address"
        },
        {
          "internalType": "string",
          "name": "reason",
          "type": "string"
        },
        {
          "internalType": "bytes",
          "name": "params",
          "type": "bytes"
        },
        {
          "internalType": "bytes",
          "name": "signature",
          "type": "bytes"
        }
      ],
      "name": "castVoteWithReasonAndParamsBySig",
      "outputs": [
        {
          "internalType": "uint256",
          "name": "",
          "type": "uint256"
        }
      ],
      "stateMutability": "nonpayable",
      "type": "function"
    },
    {
      "inputs": [],
      "name": "clock",
      "outputs": [
        {
          "internalType": "uint48",
          "name": "",
          "type": "uint48"
        }
      ],
      "stateMutability": "view",
      "type": "function"
    },
    {
      "inputs": [],
      "name": "eip712Domain",
      "outputs": [
        {
          "internalType": "bytes1",
          "name": "fields",
          "type": "bytes1"
        },
        {
          "internalType": "string",
          "name": "name",
          "type": "string"
        },
        {
          "internalType": "string",
          "name": "version",
          "type": "string"
        },
        {
          "internalType": "uint256",
          "name": "chainId",
          "type": "uint256"
        },
        {
          "internalType": "address",
          "name": "verifyingContract",
          "type": "address"
        },
        {
          "internalType": "bytes32",
          "name": "salt",
          "type": "bytes32"
        },
        {
          "internalType": "uint256[]",
          "name": "extensions",
          "type": "uint256[]"
        }
      ],
      "stateMutability": "view",
      "type": "function"
    },
    {
      "inputs": [
        {
          "internalType": "address[]",
          "name": "targets",
          "type": "address[]"
        },
        {
          "internalType": "uint256[]",
          "name": "values",
          "type": "uint256[]"
        },
        {
          "internalType": "bytes[]",
          "name": "calldatas",
          "type": "bytes[]"
        },
        {
          "internalType": "bytes32",
          "name": "descriptionHash",
          "type": "bytes32"
        }
      ],
      "name": "execute",
      "outputs": [
        {
          "internalType": "uint256",
          "name": "",
          "type": "uint256"
        }
      ],
      "stateMutability": "payable",
      "type": "function"
    },
    {
      "inputs": [],
      "name": "getNumberOfProposals",
      "outputs": [
        {
          "internalType": "uint256",
          "name": "",
          "type": "uint256"
        }
      ],
      "stateMutability": "view",
      "type": "function"
    },
    {
      "inputs": [
        {
          "internalType": "address",
          "name": "account",
          "type": "address"
        },
        {
          "internalType": "uint256",
          "name": "timepoint",
          "type": "uint256"
        }
      ],
      "name": "getVotes",
      "outputs": [
        {
          "internalType": "uint256",
          "name": "",
          "type": "uint256"
        }
      ],
      "stateMutability": "view",
      "type": "function"
    },
    {
      "inputs": [
        {
          "internalType": "address",
          "name": "account",
          "type": "address"
        },
        {
          "internalType": "uint256",
          "name": "timepoint",
          "type": "uint256"
        },
        {
          "internalType": "bytes",
          "name": "params",
          "type": "bytes"
        }
      ],
      "name": "getVotesWithParams",
      "outputs": [
        {
          "internalType": "uint256",
          "name": "",
          "type": "uint256"
        }
      ],
      "stateMutability": "view",
      "type": "function"
    },
    {
      "inputs": [
        {
          "internalType": "uint256",
          "name": "proposalId",
          "type": "uint256"
        },
        {
          "internalType": "address",
          "name": "account",
          "type": "address"
        }
      ],
      "name": "hasVoted",
      "outputs": [
        {
          "internalType": "bool",
          "name": "",
          "type": "bool"
        }
      ],
      "stateMutability": "view",
      "type": "function"
    },
    {
      "inputs": [
        {
          "internalType": "address[]",
          "name": "targets",
          "type": "address[]"
        },
        {
          "internalType": "uint256[]",
          "name": "values",
          "type": "uint256[]"
        },
        {
          "internalType": "bytes[]",
          "name": "calldatas",
          "type": "bytes[]"
        },
        {
          "internalType": "bytes32",
          "name": "descriptionHash",
          "type": "bytes32"
        }
      ],
      "name": "hashProposal",
      "outputs": [
        {
          "internalType": "uint256",
          "name": "",
          "type": "uint256"
        }
      ],
      "stateMutability": "pure",
      "type": "function"
    },
    {
      "inputs": [],
      "name": "name",
      "outputs": [
        {
          "internalType": "string",
          "name": "",
          "type": "string"
        }
      ],
      "stateMutability": "view",
      "type": "function"
    },
    {
      "inputs": [
        {
          "internalType": "address",
          "name": "owner",
          "type": "address"
        }
      ],
      "name": "nonces",
      "outputs": [
        {
          "internalType": "uint256",
          "name": "",
          "type": "uint256"
        }
      ],
      "stateMutability": "view",
      "type": "function"
    },
    {
      "inputs": [
        {
          "internalType": "address",
          "name": "",
          "type": "address"
        },
        {
          "internalType": "address",
          "name": "",
          "type": "address"
        },
        {
          "internalType": "uint256[]",
          "name": "",
          "type": "uint256[]"
        },
        {
          "internalType": "uint256[]",
          "name": "",
          "type": "uint256[]"
        },
        {
          "internalType": "bytes",
          "name": "",
          "type": "bytes"
        }
      ],
      "name": "onERC1155BatchReceived",
      "outputs": [
        {
          "internalType": "bytes4",
          "name": "",
          "type": "bytes4"
        }
      ],
      "stateMutability": "nonpayable",
      "type": "function"
    },
    {
      "inputs": [
        {
          "internalType": "address",
          "name": "",
          "type": "address"
        },
        {
          "internalType": "address",
          "name": "",
          "type": "address"
        },
        {
          "internalType": "uint256",
          "name": "",
          "type": "uint256"
        },
        {
          "internalType": "uint256",
          "name": "",
          "type": "uint256"
        },
        {
          "internalType": "bytes",
          "name": "",
          "type": "bytes"
        }
      ],
      "name": "onERC1155Received",
      "outputs": [
        {
          "internalType": "bytes4",
          "name": "",
          "type": "bytes4"
        }
      ],
      "stateMutability": "nonpayable",
      "type": "function"
    },
    {
      "inputs": [
        {
          "internalType": "address",
          "name": "",
          "type": "address"
        },
        {
          "internalType": "address",
          "name": "",
          "type": "address"
        },
        {
          "internalType": "uint256",
          "name": "",
          "type": "uint256"
        },
        {
          "internalType": "bytes",
          "name": "",
          "type": "bytes"
        }
      ],
      "name": "onERC721Received",
      "outputs": [
        {
          "internalType": "bytes4",
          "name": "",
          "type": "bytes4"
        }
      ],
      "stateMutability": "nonpayable",
      "type": "function"
    },
    {
      "inputs": [
        {
          "internalType": "uint256",
          "name": "proposalId",
          "type": "uint256"
        }
      ],
      "name": "proposalDeadline",
      "outputs": [
        {
          "internalType": "uint256",
          "name": "",
          "type": "uint256"
        }
      ],
      "stateMutability": "view",
      "type": "function"
    },
    {
      "inputs": [
        {
          "internalType": "uint256",
          "name": "proposalId",
          "type": "uint256"
        }
      ],
      "name": "proposalEta",
      "outputs": [
        {
          "internalType": "uint256",
          "name": "",
          "type": "uint256"
        }
      ],
      "stateMutability": "view",
      "type": "function"
    },
    {
      "inputs": [
        {
          "internalType": "uint256",
          "name": "proposalId",
          "type": "uint256"
        }
      ],
      "name": "proposalNeedsQueuing",
      "outputs": [
        {
          "internalType": "bool",
          "name": "",
          "type": "bool"
        }
      ],
      "stateMutability": "view",
      "type": "function"
    },
    {
      "inputs": [
        {
          "internalType": "uint256",
          "name": "proposalId",
          "type": "uint256"
        }
      ],
      "name": "proposalProposer",
      "outputs": [
        {
          "internalType": "address",
          "name": "",
          "type": "address"
        }
      ],
      "stateMutability": "view",
      "type": "function"
    },
    {
      "inputs": [
        {
          "internalType": "uint256",
          "name": "proposalId",
          "type": "uint256"
        }
      ],
      "name": "proposalSnapshot",
      "outputs": [
        {
          "internalType": "uint256",
          "name": "",
          "type": "uint256"
        }
      ],
      "stateMutability": "view",
      "type": "function"
    },
    {
      "inputs": [],
      "name": "proposalThreshold",
      "outputs": [
        {
          "internalType": "uint256",
          "name": "",
          "type": "uint256"
        }
      ],
      "stateMutability": "view",
      "type": "function"
    },
    {
      "inputs": [
        {
          "internalType": "uint256",
          "name": "proposalId",
          "type": "uint256"
        }
      ],
      "name": "proposalVotes",
      "outputs": [
        {
          "internalType": "uint256",
          "name": "againstVotes",
          "type": "uint256"
        },
        {
          "internalType": "uint256",
          "name": "forVotes",
          "type": "uint256"
        },
        {
          "internalType": "uint256",
          "name": "abstainVotes",
          "type": "uint256"
        }
      ],
      "stateMutability": "view",
      "type": "function"
    },
    {
      "inputs": [
        {
          "internalType": "address[]",
          "name": "targets",
          "type": "address[]"
        },
        {
          "internalType": "uint256[]",
          "name": "values",
          "type": "uint256[]"
        },
        {
          "internalType": "bytes[]",
          "name": "calldatas",
          "type": "bytes[]"
        },
        {
          "internalType": "string",
          "name": "description",
          "type": "string"
        }
      ],
      "name": "propose",
      "outputs": [
        {
          "internalType": "uint256",
          "name": "",
          "type": "uint256"
        }
      ],
      "stateMutability": "nonpayable",
      "type": "function"
    },
    {
      "inputs": [
        {
          "internalType": "address[]",
          "name": "targets",
          "type": "address[]"
        },
        {
          "internalType": "uint256[]",
          "name": "values",
          "type": "uint256[]"
        },
        {
          "internalType": "bytes[]",
          "name": "calldatas",
          "type": "bytes[]"
        },
        {
          "internalType": "bytes32",
          "name": "descriptionHash",
          "type": "bytes32"
        }
      ],
      "name": "queue",
      "outputs": [
        {
          "internalType": "uint256",
          "name": "",
          "type": "uint256"
        }
      ],
      "stateMutability": "nonpayable",
      "type": "function"
    },
    {
      "inputs": [
        {
          "internalType": "uint256",
          "name": "blockNumber",
          "type": "uint256"
        }
      ],
      "name": "quorum",
      "outputs": [
        {
          "internalType": "uint256",
          "name": "",
          "type": "uint256"
        }
      ],
      "stateMutability": "view",
      "type": "function"
    },
    {
      "inputs": [],
      "name": "quorumDenominator",
      "outputs": [
        {
          "internalType": "uint256",
          "name": "",
          "type": "uint256"
        }
      ],
      "stateMutability": "view",
      "type": "function"
    },
    {
      "inputs": [
        {
          "internalType": "uint256",
          "name": "timepoint",
          "type": "uint256"
        }
      ],
      "name": "quorumNumerator",
      "outputs": [
        {
          "internalType": "uint256",
          "name": "",
          "type": "uint256"
        }
      ],
      "stateMutability": "view",
      "type": "function"
    },
    {
      "inputs": [],
      "name": "quorumNumerator",
      "outputs": [
        {
          "internalType": "uint256",
          "name": "",
          "type": "uint256"
        }
      ],
      "stateMutability": "view",
      "type": "function"
    },
    {
      "inputs": [
        {
          "internalType": "address",
          "name": "target",
          "type": "address"
        },
        {
          "internalType": "uint256",
          "name": "value",
          "type": "uint256"
        },
        {
          "internalType": "bytes",
          "name": "data",
          "type": "bytes"
        }
      ],
      "name": "relay",
      "outputs": [],
      "stateMutability": "payable",
      "type": "function"
    },
    {
      "inputs": [],
      "name": "s_proposalCount",
      "outputs": [
        {
          "internalType": "uint256",
          "name": "",
          "type": "uint256"
        }
      ],
      "stateMutability": "view",
      "type": "function"
    },
    {
      "inputs": [
        {
          "internalType": "uint256",
          "name": "newProposalThreshold",
          "type": "uint256"
        }
      ],
      "name": "setProposalThreshold",
      "outputs": [],
      "stateMutability": "nonpayable",
      "type": "function"
    },
    {
      "inputs": [
        {
          "internalType": "uint48",
          "name": "newVotingDelay",
          "type": "uint48"
        }
      ],
      "name": "setVotingDelay",
      "outputs": [],
      "stateMutability": "nonpayable",
      "type": "function"
    },
    {
      "inputs": [
        {
          "internalType": "uint32",
          "name": "newVotingPeriod",
          "type": "uint32"
        }
      ],
      "name": "setVotingPeriod",
      "outputs": [],
      "stateMutability": "nonpayable",
      "type": "function"
    },
    {
      "inputs": [
        {
          "internalType": "uint256",
          "name": "proposalId",
          "type": "uint256"
        }
      ],
      "name": "state",
      "outputs": [
        {
          "internalType": "enum IGovernor.ProposalState",
          "name": "",
          "type": "uint8"
        }
      ],
      "stateMutability": "view",
      "type": "function"
    },
    {
      "inputs": [
        {
          "internalType": "bytes4",
          "name": "interfaceId",
          "type": "bytes4"
        }
      ],
      "name": "supportsInterface",
      "outputs": [
        {
          "internalType": "bool",
          "name": "",
          "type": "bool"
        }
      ],
      "stateMutability": "view",
      "type": "function"
    },
    {
      "inputs": [],
      "name": "timelock",
      "outputs": [
        {
          "internalType": "address",
          "name": "",
          "type": "address"
        }
      ],
      "stateMutability": "view",
      "type": "function"
    },
    {
      "inputs": [],
      "name": "token",
      "outputs": [
        {
          "internalType": "contract IERC5805",
          "name": "",
          "type": "address"
        }
      ],
      "stateMutability": "view",
      "type": "function"
    },
    {
      "inputs": [
        {
          "internalType": "uint256",
          "name": "newQuorumNumerator",
          "type": "uint256"
        }
      ],
      "name": "updateQuorumNumerator",
      "outputs": [],
      "stateMutability": "nonpayable",
      "type": "function"
    },
    {
      "inputs": [
        {
          "internalType": "contract TimelockController",
          "name": "newTimelock",
          "type": "address"
        }
      ],
      "name": "updateTimelock",
      "outputs": [],
      "stateMutability": "nonpayable",
      "type": "function"
    },
    {
      "inputs": [],
      "name": "version",
      "outputs": [
        {
          "internalType": "string",
          "name": "",
          "type": "string"
        }
      ],
      "stateMutability": "view",
      "type": "function"
    },
    {
      "inputs": [],
      "name": "votingDelay",
      "outputs": [
        {
          "internalType": "uint256",
          "name": "",
          "type": "uint256"
        }
      ],
      "stateMutability": "view",
      "type": "function"
    },
    {
      "inputs": [],
      "name": "votingPeriod",
      "outputs": [
        {
          "internalType": "uint256",
          "name": "",
          "type": "uint256"
        }
      ],
      "stateMutability": "view",
      "type": "function"
    },
    {
      "stateMutability": "payable",
      "type": "receive"
    }
  ],
  "bytecode": "0x61018060405234620000b75762000023620000196200016b565b939290926200020c565b604051613c28908162000cbb823960805181612f25015260a05181612fda015260c05181612eef015260e05181612f7401526101005181612f9a015261012051816113e10152610140518161140d01526101605181818161166301528181611ae501528181611c1901528181611cba01528181611dc00152818161218b015281816123c701528181612a0d015261393b0152f35b600080fd5b634e487b7160e01b600052604160045260246000fd5b604081019081106001600160401b03821117620000ee57604052565b620000bc565b60c081019081106001600160401b03821117620000ee57604052565b601f909101601f19168101906001600160401b03821190821017620000ee57604052565b604051906200014382620000d2565b565b6001600160a01b03811603620000b757565b519065ffffffffffff82168203620000b757565b620049239060a0823803928360405194859262000189828562000110565b833981010312620000b757815191620001a28362000145565b602081015192620001b38462000145565b620001c16040830162000157565b9260608301519263ffffffff84168403620000b75760800151919493929190565b60405190620001f182620000d2565b600a8252565b604051906200020682620000d2565b60018252565b620002f96200031c959294620002f36200031695620002ed6200022e620001e2565b602081016926bca3b7bb32b93737b960b11b81526200024c620001f7565b906020820190603160f81b82526200026484620007a1565b610120526200027383620008b0565b6101405283519020918260e05251902080610100524660a0526040519060208201927f8b73c3c69bb8fe3d512ecc4cf759cc79239f7b179b0ffacaa9a75d522b39400f8452604083015260608201524660808201523060a082015260a08152620002dd81620000f4565b5190206080523060c05262000478565b62000696565b620006e3565b6200030362000767565b6001600160a01b031661016052620005c2565b62000573565b620001436000600d55565b90600182811c9216801562000359575b60208310146200034357565b634e487b7160e01b600052602260045260246000fd5b91607f169162000337565b601f811162000371575050565b60009060036000526020600020906020601f850160051c83019410620003b4575b601f0160051c01915b828110620003a857505050565b8181556001016200039b565b909250829062000392565b601f8111620003cc575050565b600090600080526020600020906020601f850160051c830194106200040e575b601f0160051c01915b8281106200040257505050565b818155600101620003f5565b9092508290620003ec565b90601f821162000427575050565b60019160009060016000526020600020906020601f850160051c830194106200046d575b601f0160051c01915b828110620004625750505050565b818155830162000454565b90925082906200044b565b80519091906001600160401b038111620000ee57620004a4816200049e60035462000327565b62000364565b602080601f8311600114620004eb57508190620004da9394600092620004df575b50508160011b916000199060031b1c19161790565b600355565b015190503880620004c5565b6003600052601f198316949091907fc2575a0e9e593c00f959f8c92f12db2869c3395a3b0502d05e2516446f71f85b926000905b8782106200055a57505083600195961062000540575b505050811b01600355565b015160001960f88460031b161c1916905538808062000535565b806001859682949686015181550195019301906200051f565b600b547f08f74ea46ef7894f65eabfb5e6e695de773a000b47c529ab559178069b226401604060018060a01b038094169381519084168152846020820152a16001600160a01b03191617600b55565b90606482116200067657600a5460009290806200062f57506000805160206200490383398151915291925060005b62000610620005fe6200099c565b620006098462000a4b565b9062000bbe565b5050604080516001600160d01b039290921682526020820192909252a1565b6000199080828101116200066257602085600a600080516020620049038339815191529697522001015460301c620005f0565b634e487b7160e01b85526011600452602485fd5b60405163243e544560e01b81526004810183905260646024820152604490fd5b6008547fc565b045403dc03c2eea82b81a0465edad9e2e7fc4d97e11421c209da93d7a93604065ffffffffffff81519481851686521693846020820152a165ffffffffffff191617600855565b63ffffffff8082169182156200074e577f7e3f7f0708a84de9203036abaa450dccc85ad5ff52f78c170f3edb55cf5e8828604069ffffffff00000000000093600854958251918760301c1682526020820152a160301b169069ffffffff000000000000191617600855565b60405163f1cfbf0560e01b815260006004820152602490fd5b7fccb45da8d5717e6c4544694297c4ba5cf151d455c9bb0ed4fc7a38411bc054616040600754815190815260006020820152a16000600755565b90815160209060208110600014620007c457505090620007c19062000aa3565b90565b6001600160401b038111620000ee57600091620007ed82620007e7855462000327565b620003bf565b602090601f83116001146200082957508190839495620008229492620004df5750508160011b916000199060031b1c19161790565b905560ff90565b60008052601f198316957f290decd9548b62a8d60345a988386fc84ba6bc95484008f6362f93160ef3e563929185905b88821062000897575050836001959697106200087d575b505050811b01905560ff90565b015160001960f88460031b161c1916905538808062000870565b8060018596829496860151815501950193019062000859565b90815160209060208110600014620008d057505090620007c19062000aa3565b6001600160401b038111620000ee57600191620008f982620008f3855462000327565b62000419565b602090601f83116001146200092f5750819062000822939495600092620004df5750508160011b916000199060031b1c19161790565b6001600052601f198316959091907fb10e2d527612073b26eecdfd717e6a320cf44b4afac2b0732d9fcbe2b7fa0cf6926000905b8882106200098457505083859697106200087d57505050811b01905560ff90565b80878596829496860151815501950193019062000963565b610160516040516324776b7d60e21b815290602090829060049082906001600160a01b03165afa6000918162000a07575b50620007c1575065ffffffffffff804311620009e857431690565b6040516306dfcc6560e41b815260306004820152436024820152604490fd5b9091506020813d60201162000a42575b8162000a266020938362000110565b81010312620000b75762000a3a9062000157565b9038620009cd565b3d915062000a17565b6001600160d01b039081811162000a60571690565b604490604051906306dfcc6560e41b825260d060048301526024820152fd5b60208151910151906020811062000a94575090565b6000199060200360031b1b1690565b601f81511162000abe5762000ab88162000a7f565b90511790565b6040519063305a27a960e01b82528160208060048301528251908160248401526000935b82851062000b06575050604492506000838284010152601f80199101168101030190fd5b848101820151868601604401529381019385935062000ae2565b60001981019190821162000b3057565b634e487b7160e01b600052601160045260246000fd5b600a549068010000000000000000821015620000ee576001820180600a5582101562000ba857600a60005280516020919091015160301b65ffffffffffff191665ffffffffffff9190911617600080516020620048e383398151915290910155565b634e487b7160e01b600052603260045260246000fd5b600a54919291801562000c8b5762000bda62000bf39162000b20565b600a600052600080516020620048e38339815191520190565b9081549165ffffffffffff9081841691831680831162000c795786920362000c3b5762000c3492509065ffffffffffff82549181199060301b169116179055565b60301c9190565b505062000c739062000c5e62000c5062000134565b65ffffffffffff9092168252565b6001600160d01b038516602082015262000b46565b62000c34565b604051632520601d60e01b8152600490fd5b5062000cb49062000c9f62000c5062000134565b6001600160d01b038416602082015262000b46565b6000919056fe60806040526004361015610023575b361561001957600080fd5b610021612414565b005b60003560e01c806301ffc9a71461033e57806302a251a31461033957806306f3f9e61461033457806306fdde031461032f578063143489d01461032a578063150b7a0214610325578063160cbed7146103205780632656227d1461031b5780632d63f693146103165780632fe3e2611461031157806333809b6c146102945780633932abb11461030c5780633e4f49e6146103075780634385963214610302578063452115d6146102fd5780634bf5d7e9146102f8578063544ffc9c146102f357806354fd4d50146102ee57806356781388146102e95780635b8d0e0d146102e45780635f398a14146102df57806360c4247f146102da57806379051887146102d55780637b3c71d3146102d05780637d5e81e2146102cb5780637ecebe00146102c657806384b0196e146102c15780638ff262e3146102bc57806391ddadf4146102b757806397c3d334146102b25780639a802a6d146102ad578063a7713a70146102a8578063a890c910146102a3578063a9a952941461029e578063ab58fb8e14610299578063b3cbcf1b14610294578063b58131b01461028f578063bc197c811461028a578063c01f9e3714610285578063c28bc2fa14610280578063c59057e41461027b578063d33219b414610276578063dd4e2ba514610271578063deaaa7cc1461026c578063e540d01d14610267578063eb9019d414610262578063ece40cc11461025d578063f23a6e6114610258578063f8ce560a146102535763fc0c546a0361000e57611ca4565b611be9565b611b7e565b611b29565b611a89565b6119e0565b6119a5565b611947565b61191e565b611902565b611896565b611878565b6117d8565b6117ba565b610dcc565b611783565b611767565b6116f3565b6116c7565b6115f5565b6115d9565b6115ae565b611492565b6113c8565b611357565b6112be565b611269565b6111f7565b6111c9565b61115a565b6110d2565b611055565b611003565b610fb6565b610f86565b610ec8565b610e6f565b610e42565b610dea565b610d91565b610d5a565b610bf6565b6109ac565b61076d565b6105f0565b610507565b6103e3565b6103bc565b346103ac5760203660031901126103ac5760043563ffffffff60e01b81168091036103ac576020906332a2ad4360e11b811490811561039b575b811561038a575b506040519015158152f35b6301ffc9a760e01b1490503861037f565b630271189760e51b81149150610378565b600080fd5b60009103126103ac57565b346103ac5760003660031901126103ac57602063ffffffff60085460301c16604051908152f35b346103ac5760203660031901126103ac576004356103ff612428565b6064811161048c576001600160d01b039081610419612a41565b16610422612176565b9280831161046c577f0553476bf02ef2726e8ce5ced78d63e26e602e4a2257b1f559418e24b46339979361045891841690613824565b5050604080519182526020820192909252a1005b6040516306dfcc6560e41b815260d0600482015260248101849052604490fd5b6044906040519063243e544560e01b8252600482015260646024820152fd5b60005b8381106104be5750506000910152565b81810151838201526020016104ae565b906020916104e7815180928185528580860191016104ab565b601f01601f1916010190565b9060206105049281815201906104ce565b90565b346103ac576000806003193601126105ed5760405190806003549061052b82611ce9565b808552916020916001918281169081156105c05750600114610568575b61056486610558818803826106d0565b604051918291826104f3565b0390f35b9350600384527fc2575a0e9e593c00f959f8c92f12db2869c3395a3b0502d05e2516446f71f85b5b8385106105ad575050505081016020016105588261056438610548565b8054868601840152938201938101610590565b90508695506105649693506020925061055894915060ff191682840152151560051b820101929338610548565b80fd5b346103ac5760203660031901126103ac576004356000526004602052602060018060a01b0360406000205416604051908152f35b6001600160a01b038116036103ac57565b634e487b7160e01b600052604160045260246000fd5b6001600160401b03811161065e57604052565b610635565b604081019081106001600160401b0382111761065e57604052565b602081019081106001600160401b0382111761065e57604052565b60c081019081106001600160401b0382111761065e57604052565b61010081019081106001600160401b0382111761065e57604052565b90601f801991011681019081106001600160401b0382111761065e57604052565b604051906106fe82610663565b565b6001600160401b03811161065e57601f01601f191660200190565b92919261072782610700565b9161073560405193846106d0565b8294818452818301116103ac578281602093846000960137010152565b9080601f830112156103ac578160206105049335910161071b565b346103ac5760803660031901126103ac57610789600435610624565b610794602435610624565b6064356001600160401b0381116103ac576107b3903690600401610752565b50600b546001600160a01b031630036107d857604051630a85bd0160e11b8152602090f35b604051637485328f60e11b8152600490fd5b6001600160401b03811161065e5760051b60200190565b9080601f830112156103ac57602090823561081b816107ea565b9361082960405195866106d0565b81855260208086019260051b8201019283116103ac57602001905b828210610852575050505090565b838091833561086081610624565b815201910190610844565b9080601f830112156103ac576020908235610885816107ea565b9361089360405195866106d0565b81855260208086019260051b8201019283116103ac57602001905b8282106108bc575050505090565b813581529083019083016108ae565b81601f820112156103ac578035916020916108e5846107ea565b936108f360405195866106d0565b808552838086019160051b830101928084116103ac57848301915b84831061091e5750505050505090565b82356001600160401b0381116103ac57869161093f84848094890101610752565b81520192019161090e565b60806003198201126103ac576001600160401b03916004358381116103ac578261097691600401610801565b926024358181116103ac578361098e9160040161086b565b926044359182116103ac576109a5916004016108cb565b9060643590565b346103ac576109ba3661094a565b6109c8818385879697612323565b926109d2846124bc565b50600b546109f0906001600160a01b03165b6001600160a01b031690565b9260409586519363793d064960e11b855260209081866004818a5afa958615610ba557600096610bd7575b506bffffffffffffffffffffffff193060601b161895818951809263b1c5f42760e01b82528180610a528c8a8a8d60048601612b68565b03915afa918215610ba557600092610baa575b5050610a7b87600052600c602052604060002090565b55600b54610a91906001600160a01b03166109e4565b90813b156103ac5760008094610abd878b51998a97889687956308f2a0bb60e41b875260048701612bae565b03925af1908115610ba557610ae192610adc92610b8c575b50426129a8565b612968565b65ffffffffffff811615610b7b57917f9a2e42fd6722813d69113e7d0079d3d940171428df7373df9c7f7617cfda2892610b6a84610b4c610564966001610b32886000526004602052604060002090565b019065ffffffffffff1665ffffffffffff19825416179055565b835185815265ffffffffffff90911660208201529081906040820190565b0390a1519081529081906020820190565b8251634844252360e11b8152600490fd5b80610b99610b9f9261064b565b806103b1565b38610ad5565b611d52565b610bc99250803d10610bd0575b610bc181836106d0565b8101906129cd565b3880610a65565b503d610bb7565b610bef919650823d8411610bd057610bc181836106d0565b9438610a1b565b610bff3661094a565b610c0d818385879597612323565b92610c178461250e565b50610c42610c2f856000526004602052604060002090565b805460ff60f01b1916600160f01b179055565b600b546001600160a01b03939084163003610cf4575b94610c6892916105649686612bfc565b600b543091166001600160a01b0316141580610ccf575b610cc0575b6040518181527f712ae1383f79ac853f8d882153778e0260ef8f03b504e2866e0593e04d2b291f90602090a16040519081529081906020820190565b610cca6000600555565b610c84565b50610cef610ceb6005546001600160801b0381169060801c1490565b1590565b610c7f565b9290939160005b8451811015610d505760019030610d256109e4610d18848a611d39565b516001600160a01b031690565b14610d31575b01610cfb565b610d4b610d3e828a611d39565b5160208151910120612560565b610d2b565b5091939092610c58565b346103ac5760203660031901126103ac576004356000526004602052602065ffffffffffff60406000205460a01c16604051908152f35b346103ac5760003660031901126103ac5760206040517f3e83946653575f9a39005e1545185629e92736b7528ab20ca3816f315424a8118152f35b346103ac5760003660031901126103ac576020600d54604051908152f35b346103ac5760003660031901126103ac57602065ffffffffffff60085416604051908152f35b634e487b7160e01b600052602160045260246000fd5b60081115610e3057565b610e10565b906008821015610e305752565b346103ac5760203660031901126103ac576020610e606004356125d3565b610e6d6040518092610e35565bf35b346103ac5760403660031901126103ac57602060ff610ebc602435610e9381610624565b6004356000526009845260036040600020019060018060a01b0316600052602052604060002090565b54166040519015158152f35b346103ac57610ed63661094a565b90610ee5828285879697612323565b610eee816125d3565b6008811015610e305760018060ff83161b1615610f5957506000908152600460205260409020546001600160a01b03163303610f415761056493610f3193612dab565b6040519081529081906020820190565b60405163233d98e360e01b8152336004820152602490fd5b90610f7d606492604051926331b75e4d60e01b845260048401526024830190610e35565b60016044820152fd5b346103ac5760003660031901126103ac57610564610fa2611daa565b6040519182916020835260208301906104ce565b346103ac5760203660031901126103ac5760043560005260096020526040600020805461056460026001840154930154604051938493846040919493926060820195825260208201520152565b346103ac5760003660031901126103ac5761056460405161102381610663565b60018152603160f81b60208201526040519182916020835260208301906104ce565b6024359060ff821682036103ac57565b346103ac5760403660031901126103ac57602061109d611073611045565b60405161107f8161067e565b60008152604051916110908361067e565b6000835233600435612854565b604051908152f35b9181601f840112156103ac578235916001600160401b0383116103ac57602083818601950101116103ac57565b346103ac5760c03660031901126103ac576110eb611045565b604435906110f882610624565b6001600160401b03906064358281116103ac576111199036906004016110a5565b6084358481116103ac57611131903690600401610752565b9160a4359485116103ac5761056495611151610f31963690600401610752565b94600435611e89565b346103ac5760803660031901126103ac57611173611045565b6001600160401b03906044358281116103ac576111949036906004016110a5565b90916064359384116103ac576111bf61109d936111b76020963690600401610752565b93369161071b565b9033600435612854565b346103ac5760203660031901126103ac57602061109d600435611fa9565b65ffffffffffff8116036103ac57565b346103ac5760203660031901126103ac57600435611214816111e7565b61121c612428565b6008547fc565b045403dc03c2eea82b81a0465edad9e2e7fc4d97e11421c209da93d7a93604065ffffffffffff81519481851686521693846020820152a165ffffffffffff191617600855005b346103ac5760603660031901126103ac57611282611045565b6044356001600160401b0381116103ac576020916112b16112aa61109d9336906004016110a5565b369161071b565b604051916110908361067e565b346103ac5760803660031901126103ac576001600160401b036004358181116103ac576112ef903690600401610801565b906024358181116103ac5761130890369060040161086b565b916044358281116103ac576113219036906004016108cb565b6064359283116103ac57366023840112156103ac5761056493611351610f3194369060248160040135910161071b565b926120c6565b346103ac5760203660031901126103ac5760043561137481610624565b60018060a01b031660005260026020526020604060002054604051908152f35b90815180825260208080930193019160005b8281106113b4575050505090565b8351855293810193928101926001016113a6565b346103ac5760003660031901126103ac576114636114057f00000000000000000000000000000000000000000000000000000000000000006135e0565b6105646114317f00000000000000000000000000000000000000000000000000000000000000006136e1565b611471604051916114418361067e565b60008352604051958695600f60f81b875260e0602088015260e08701906104ce565b9085820360408701526104ce565b90466060850152306080850152600060a085015283820360c0850152611394565b346103ac5760803660031901126103ac576004356114ae611045565b90604435916114bc83610624565b6064356001600160401b0381116103ac57610ceb6114e161156e923690600401610752565b6001600160a01b03861660009081526002602052604090208054600181019091556115689060405160208101917ff2aad550cf55f045cb27e9c559f9889fdfb6e6cdaa032301d6ea397784ae51d7835288604083015260ff8816606083015260018060a01b038a16608083015260a082015260a0815261156081610699565b519020612701565b86612731565b6115895790610f319161056493611583611d5e565b926126e5565b6040516394ab6c0760e01b81526001600160a01b0384166004820152602490fd5b0390fd5b346103ac5760003660031901126103ac5760206115c9612176565b65ffffffffffff60405191168152f35b346103ac5760003660031901126103ac57602060405160648152f35b346103ac5760603660031901126103ac5760043561161281610624565b6044356001600160401b0381116103ac576044916116366020923690600401610752565b50604051630748d63560e31b81526001600160a01b039182166004820152602480359082015292839182907f0000000000000000000000000000000000000000000000000000000000000000165afa8015610ba557610564916000916116a8575b506040519081529081906020820190565b6116c1915060203d602011610bd057610bc181836106d0565b38611697565b346103ac5760003660031901126103ac5760206001600160d01b036116ea612a41565b16604051908152f35b346103ac5760203660031901126103ac5760043561171081610624565b611718612428565b600b547f08f74ea46ef7894f65eabfb5e6e695de773a000b47c529ab559178069b226401604060018060a01b038094169381519084168152846020820152a16001600160a01b03191617600b55005b346103ac5760203660031901126103ac57602060405160018152f35b346103ac5760203660031901126103ac576004356000526004602052602065ffffffffffff60016040600020015416604051908152f35b346103ac5760003660031901126103ac576020600754604051908152f35b346103ac5760a03660031901126103ac576117f4600435610624565b6117ff602435610624565b6001600160401b036044358181116103ac5761181f90369060040161086b565b506064358181116103ac5761183890369060040161086b565b506084359081116103ac57611851903690600401610752565b5061056461185d61220a565b6040516001600160e01b031990911681529081906020820190565b346103ac5760203660031901126103ac57602061109d600435612227565b60603660031901126103ac576004356118ae81610624565b604435906001600160401b0382116103ac57600080916118d56100219436906004016110a5565b906118de612428565b81604051928392833781018481520391602435905af16118fc612259565b90612a88565b346103ac57602061109d6119153661094a565b92919091612323565b346103ac5760003660031901126103ac57600b546040516001600160a01b039091168152602090f35b346103ac5760003660031901126103ac5761056460405161196781610663565b602081527f737570706f72743d627261766f2671756f72756d3d666f722c6162737461696e60208201526040519182916020835260208301906104ce565b346103ac5760003660031901126103ac5760206040517ff2aad550cf55f045cb27e9c559f9889fdfb6e6cdaa032301d6ea397784ae51d78152f35b346103ac5760203660031901126103ac5760043563ffffffff808216918281036103ac57611a0c612428565b8215611a70577f7e3f7f0708a84de9203036abaa450dccc85ad5ff52f78c170f3edb55cf5e8828604069ffffffff00000000000093600854958251918760301c1682526020820152a160301b169069ffffffff000000000000191617600855600080f35b60405163f1cfbf0560e01b815260006004820152602490fd5b346103ac5760403660031901126103ac5760446020600435611aaa81610624565b6000604051611ab88161067e565b52604051630748d63560e31b81526001600160a01b039182166004820152602480359082015292839182907f0000000000000000000000000000000000000000000000000000000000000000165afa8015610ba557610564916000916116a857506040519081529081906020820190565b346103ac5760203660031901126103ac57600435611b45612428565b60075460408051918252602082018390527fccb45da8d5717e6c4544694297c4ba5cf151d455c9bb0ed4fc7a38411bc0546191a1600755005b346103ac5760a03660031901126103ac57611b9a600435610624565b611ba5602435610624565b6084356001600160401b0381116103ac57611bc4903690600401610752565b50600b546001600160a01b031630036107d85760405163f23a6e6160e01b8152602090f35b346103ac5760203660031901126103ac57604051632394e7a360e21b8152600480359082018190526020826024817f00000000000000000000000000000000000000000000000000000000000000006001600160a01b03165afa918215610ba55761056492606492611c6d92600092611c7f575b50611c6790611fa9565b90612add565b04604051918291829190602083019252565b611c67919250611c9d9060203d602011610bd057610bc181836106d0565b9190611c5d565b346103ac5760003660031901126103ac576040517f00000000000000000000000000000000000000000000000000000000000000006001600160a01b03168152602090f35b90600182811c92168015611d19575b6020831014611d0357565b634e487b7160e01b600052602260045260246000fd5b91607f1691611cf8565b634e487b7160e01b600052603260045260246000fd5b8051821015611d4d5760209160051b010190565b611d23565b6040513d6000823e3d90fd5b60405190611d6b8261067e565b60008252565b60405190611d7e82610663565b601d82527f6d6f64653d626c6f636b6e756d6265722666726f6d3d64656661756c740000006020830152565b604051634bf5d7e960e01b8152600080826004817f00000000000000000000000000000000000000000000000000000000000000006001600160a01b03165afa90918282611e02575b50506105045750610504611d71565b909192503d8082843e611e1581846106d0565b820191602081840312611e81578051906001600160401b038211611e85570182601f82011215611e8157805191611e4b83610700565b93611e5960405195866106d0565b838552602084840101116105ed575090611e7991602080850191016104ab565b903880611df3565b5080fd5b8280fd5b939092919695610ceb611f4391611f3d8a611ebf8160018060a01b03166000526002602052604060002080549060018201905590565b611eca36888a61071b565b602081519101208b5160208d0120906040519260208401947f3e83946653575f9a39005e1545185629e92736b7528ab20ca3816f315424a81186528d604086015260ff8d16606086015260018060a01b0316608085015260a084015260c083015260e082015260e08152611560816106b4565b8a612731565b611f5e57610504959691611f5891369161071b565b92612854565b6040516394ab6c0760e01b81526001600160a01b0388166004820152602490fd5b634e487b7160e01b600052601160045260246000fd5b600019810191908211611fa457565b611f7f565b600a546000198101818111611fa457811115611d4d57600a6000527fc65a7bb8d6351c1cf70c95a316cc6a92839c986682d98bc35f958f4883f9d2a78101549165ffffffffffff928184821611156120bc575061200590612968565b6000908260058111612065575b5061201d9350613252565b80612032575060005b6001600160d01b031690565b61205961204161206092611f95565b600a600052600080516020613bfc8339815191520190565b5460301c90565b612026565b909261207082613127565b8203918211611fa45761201d94600a6000528083600080516020613bfc833981519152015416908516106000146120aa5750915b38612012565b9291506120b69061299a565b906120a4565b9250505060301c90565b9193929093600d546000198114611fa457600101600d556120e782336132bb565b1561215e576007549485612103575b6105049495503393613429565b61212a612124612119612114612176565b6129b5565b65ffffffffffff1690565b33612387565b86811061213757506120f6565b604051636121770b60e11b8152336004820152602481019190915260448101879052606490fd5b60405163d9b3955760e01b8152336004820152602490fd5b6040516324776b7d60e21b81526020816004817f00000000000000000000000000000000000000000000000000000000000000006001600160a01b03165afa600091816121cd575b50610504575061050443612968565b9091506020813d602011612202575b816121e9602093836106d0565b810103126103ac57516121fb816111e7565b90386121be565b3d91506121dc565b600b546001600160a01b031630036107d85763bc197c8160e01b90565b600052600460205260406000205465ffffffffffff908163ffffffff8260d01c169160a01c1601818111611fa4571690565b3d15612284573d9061226a82610700565b9161227860405193846106d0565b82523d6000602084013e565b606090565b90815180825260208080930193019160005b8281106122a9575050505090565b83516001600160a01b03168552938101939281019260010161229b565b90808251908181526020809101926020808460051b8301019501936000915b8483106122f55750505050505090565b9091929394958480612313600193601f198682030187528a516104ce565b98019301930191949392906122e5565b929061236f926123819260405194859261235f61234c602086019960808b5260a0870190612289565b601f199687878303016040880152611394565b90858583030160608601526122c6565b906080830152039081018352826106d0565b51902090565b60209060006040516123988161067e565b52604051630748d63560e31b81526001600160a01b0391821660048201526024810193909352829060449082907f0000000000000000000000000000000000000000000000000000000000000000165afa908115610ba5576000916123fb575090565b610504915060203d602011610bd057610bc181836106d0565b600b546001600160a01b031630036107d857565b600b546001600160a01b031633810361248457300361244357565b61244c36610700565b61245960405191826106d0565b368152602081019036600083376000602036830101525190205b8061247c612b10565b036124735750565b6040516347096e4760e01b8152336004820152602490fd5b6040906124b86000939594606083019683526020830190610e35565b0152565b6124c5816125d3565b906008821015610e30576010600160ff84161b16156124e2575090565b612505606492604051926331b75e4d60e01b845260048401526024830190610e35565b60106044820152fd5b612517816125d3565b906008821015610e30576030600160ff84161b1615612534575090565b612557606492604051926331b75e4d60e01b845260048401526024830190610e35565b60306044820152fd5b6005548060801c9160018301926001600160801b03809316838516146125a8576000526006602052604060002055600554916001600160801b03199060801b16911617600555565b634e487b7160005260416020526024601cfd5b908160209103126103ac575180151581036103ac5790565b6125dc81612c87565b906125e682610e26565b600582036126e1576126039150600052600c602052604060002090565b54600b54612619906001600160a01b03166109e4565b604051632c258a9f60e11b81526004810183905260209291908381602481855afa908115610ba5576000916126c4575b501561265757505050600590565b604051632ab0f52960e01b815260048101929092528290829060249082905afa918215610ba557600092612697575b50501561269257600790565b600290565b6126b69250803d106126bd575b6126ae81836106d0565b8101906125bb565b3880612686565b503d6126a4565b6126db9150843d86116126bd576126ae81836106d0565b38612649565b5090565b916105049391604051936126f88561067e565b60008552612854565b60429061270c612eec565b906040519161190160f01b8352600283015260228201522090565b60041115610e3057565b9091813b61276c576127439192613000565b5061274d81612727565b15918261275957505090565b6001600160a01b03918216911614919050565b60009182916040516127b0816127a26020820194630b135d3f60e11b998a875260248401526040604484015260648301906104ce565b03601f1981018352826106d0565b51915afa906127bd612259565b826127e6575b826127cd57505090565b6127e2919250602080825183010191016129cd565b1490565b9150602082511015916127c3565b93909260ff6128209361050497958752166020860152604085015260a0606085015260a08401906104ce565b9160808184039101526104ce565b909260ff60809361050496958452166020830152604082015281606082015201906104ce565b929190612860846125d3565b6008811015610e30576002600160ff83161b161561293a57508360005260046020526128b16128a96128a3612119604060002065ffffffffffff905460a01c1690565b836129dc565b83838761303c565b948051156000146128fe57506128f87fb8e138887d0aa13bab447e82de9d5c1777041ecd21ca36ba824ff1e6c07ddda4938660405194859460018060a01b0316978561282e565b0390a290565b6128f8907fe2babfbac5889a709b63bb7f598b324e08bc5a4fb9ec647fb3cbc9ec07eb8712948760405195869560018060a01b031698866127f4565b6040516331b75e4d60e01b81526004810186905260649161295f906024830190610e35565b60026044820152fd5b65ffffffffffff9081811161297b571690565b604490604051906306dfcc6560e41b8252603060048301526024820152fd5b9060018201809211611fa457565b91908201809211611fa457565b65ffffffffffff9081166000190191908211611fa457565b908160209103126103ac575190565b604051630748d63560e31b81526001600160a01b0391821660048201526024810192909252602090829060449082907f0000000000000000000000000000000000000000000000000000000000000000165afa908115610ba5576000916123fb575090565b600a5480612a4f5750600090565b80600019810111611fa457600a6000527fc65a7bb8d6351c1cf70c95a316cc6a92839c986682d98bc35f958f4883f9d2a7015460301c90565b9091906106fe5750805115612a9f57805190602001fd5b60405163d6bda27560e01b8152600490fd5b908160011b9180830460021490151715611fa457565b908160041b9180830460101490151715611fa457565b81810292918115918404141715611fa457565b8115612afa570490565b634e487b7160e01b600052601260045260246000fd5b600554906001600160801b038083169260801c8314612b5557826000526006602052600160406000209360008554955501166001600160801b03196005541617600555565b634e487b7160005260316020526024601cfd5b949392612b94608093612b86612ba29460a08a5260a08a0190612289565b9088820360208a0152611394565b9086820360408801526122c6565b93600060608201520152565b9192612bdd60a094612bcf612beb949998979960c0875260c0870190612289565b908582036020870152611394565b9083820360408501526122c6565b946000606083015260808201520152565b9290939160018060a01b03600b541690813b156103ac57600093612c4b6040519788958694859463e38335e560e01b86526bffffffffffffffffffffffff193060601b16189260048601612b68565b039134905af1908115610ba557600092612c7592612c78575b50600052600c602052604060002090565b55565b612c819061064b565b38612c64565b612c9b816000526004602052604060002090565b5460ff8160f01c16612da45760f81c612d9e57612cd7612119612cc8836000526004602052604060002090565b5460a01c65ffffffffffff1690565b8015612d8557612ce8612119612176565b80911015612d7e57612cf982612227565b10612d045750600190565b612d10610ceb826138f5565b8015612d59575b15612d225750600390565b6121196001612d3e612d4b936000526004602052604060002090565b015465ffffffffffff1690565b612d5457600490565b600590565b50612d79610ceb8260005260096020526040600020600181015490541090565b612d17565b5050600090565b604051636ad0607560e01b815260048101839052602490fd5b50600290565b5050600790565b90612db7939291612323565b612dc0816125d3565b6008811015610e3057603b600160ff83161b1615612ebf5750612e05612df0826000526004602052604060002090565b80546001600160f81b0316600160f81b179055565b6040518181527f789cf55be980739dad1d0699b93b58e806b51c9d96619bfa8fe0a28abaa7b30c90602090a1612e4581600052600c602052604060002090565b5480612e4f575090565b600b54612e64906001600160a01b03166109e4565b803b156103ac5760405163c4d252f560e01b815260048101929092526000908290602490829084905af18015610ba557612eac575b506000818152600c602052604081205590565b80610b99612eb99261064b565b38612e99565b90612ee3606492604051926331b75e4d60e01b845260048401526024830190610e35565b603b6044820152fd5b307f00000000000000000000000000000000000000000000000000000000000000006001600160a01b03161480612fd7575b15612f47577f000000000000000000000000000000000000000000000000000000000000000090565b60405160208101907f8b73c3c69bb8fe3d512ecc4cf759cc79239f7b179b0ffacaa9a75d522b39400f82527f000000000000000000000000000000000000000000000000000000000000000060408201527f000000000000000000000000000000000000000000000000000000000000000060608201524660808201523060a082015260a0815261238181610699565b507f00000000000000000000000000000000000000000000000000000000000000004614612f1e565b81519190604183036130315761302a92506020820151906060604084015193015160001a90613997565b9192909190565b505060009160029190565b613053909291926000526009602052604060002090565b916003830161307e61307783839060018060a01b0316600052602052604060002090565b5460ff1690565b613106576130a460ff93926130b1929060018060a01b0316600052602052604060002090565b805460ff19166001179055565b16806130c857506130c38282546129a8565b905590565b600181036130df57506001016130c38282546129a8565b6002036130f4576002016130c38282546129a8565b6040516303599be160e11b8152600490fd5b6040516371c6af4960e01b81526001600160a01b0383166004820152602490fd5b600181111561050457600181600160801b811015613240575b6131e86131de6131d46131ca6131c06131b66131f497600488600160401b6131ef9a1015613233575b640100000000811015613226575b62010000811015613219575b61010081101561320d575b6010811015613201575b10156131f9575b60030260011c6131af818b612af0565b0160011c90565b6131af818a612af0565b6131af8189612af0565b6131af8188612af0565b6131af8187612af0565b6131af8186612af0565b8093612af0565b821190565b900390565b60011b61319f565b811c9160021b91613198565b60081c91811b9161318e565b60101c9160081b91613183565b60201c9160101b91613177565b60401c9160201b91613169565b50600160401b9050608082901c613140565b905b82811061326057505090565b90918082169080831860011c8201809211611fa457600a60005265ffffffffffff8083600080516020613bfc833981519152015416908516106000146132a95750915b90613254565b9291506132b59061299a565b906132a3565b908051603481106133085760131981830101516001600160b01b03191669dc8f8d908f908c9a8dc360b01b01613308576132fa91602919820190613a1b565b901591821561275957505090565b505050600190565b9061331a826107ea565b61332760405191826106d0565b8281528092613338601f19916107ea565b019060005b82811061334957505050565b80606060208093850101520161333d565b959261338e9061339c939b9a989996959261012090895260209c60018060a01b03168d8a01528060408a0152880190612289565b908682036060880152611394565b9784890360808601528251808a52818a019180808360051b8d01019501926000905b8382106133fb575050505050610504969750906133e29184820360a08601526122c6565b9360c083015260e08201526101008184039101526104ce565b9091929395838061341a8f93600194601f199082030186528a516104ce565b980192019201909392916133be565b91949390929461344186516020880120828686612323565b9583518551908181148015906135d5575b80156135cd575b6135a457505065ffffffffffff948561347f612cc88a6000526004602052604060002090565b1661357d577f7d84a6263ae0d98d3329bd7b46bb4e8d6f98cd35a7adb45c274c8b7fd5ebd5e0956135789363ffffffff6134c86134ba612176565b6008549480861691166129a8565b9260301c166135566134e48c6000526004602052604060002090565b80546001600160a01b0319166001600160a01b038a1617815561352d61350986612968565b825465ffffffffffff60a01b191660a09190911b65ffffffffffff60a01b16178255565b61353683613aad565b815463ffffffff60d01b191660d09190911b63ffffffff60d01b16179055565b61356a6135638951613310565b91846129a8565b936040519889988d8a61335a565b0390a1565b87613587816125d3565b6040516331b75e4d60e01b81529182916115aa916004840161249c565b8351604051630447b05d60e41b8152600481019290925260248201526044810191909152606490fd5b508015613459565b508351811415613452565b60ff811461361e5760ff811690601f821161360c576040519161360283610663565b8252602082015290565b604051632cd44ac360e21b8152600490fd5b506040516000816000549161363283611ce9565b808352926020906001908181169081156136bd575060011461365d575b5050610504925003826106d0565b915092600080527f290decd9548b62a8d60345a988386fc84ba6bc95484008f6362f93160ef3e563936000925b8284106136a55750610504945050508101602001388061364f565b8554878501830152948501948694509281019261368a565b9150506020925061050494915060ff191682840152151560051b820101388061364f565b60ff81146137035760ff811690601f821161360c576040519161360283610663565b5060405160008160019160015461371981611ce9565b80845293602091600181169081156136bd5750600114613741575050610504925003826106d0565b91509260016000527fb10e2d527612073b26eecdfd717e6a320cf44b4afac2b0732d9fcbe2b7fa0cf6936000925b82841061378a5750610504945050508101602001388061364f565b8554878501830152948501948694509281019261376f565b600a5490600160401b82101561065e576001820180600a55821015611d4d576106fe91600a600052600080516020613bfc833981519152019061380265ffffffffffff825116839065ffffffffffff1665ffffffffffff19825416179055565b60200151815465ffffffffffff1660309190911b65ffffffffffff1916179055565b600a5491929180156138cb5761204161383c91611f95565b9081549165ffffffffffff908184169183168083116138b9578692036138815761387a92509065ffffffffffff82549181199060301b169116179055565b60301c9190565b50506138b4906138a06138926106f1565b65ffffffffffff9092168252565b6001600160d01b03851660208201526137a2565b61387a565b604051632520601d60e01b8152600490fd5b506138ef906138db6138926106f1565b6001600160d01b03841660208201526137a2565b60009190565b60005260096020526040600020600460205265ffffffffffff60406000205460a01c1660405190632394e7a360e21b825280600483015260208260248160018060a01b037f0000000000000000000000000000000000000000000000000000000000000000165afa918215610ba5576139929260649261398092600092611c7f5750611c6790611fa9565b049160026001820154910154906129a8565b101590565b91907f7fffffffffffffffffffffffffffffff5d576e7357a4501ddfe92f46681b20a08411613a0f57926020929160ff608095604051948552168484015260408301526060820152600092839182805260015afa15610ba55780516001600160a01b03811615613a0657918190565b50809160019190565b50505060009160039190565b9190825182118015613aa4575b613a7b57613a358161299a565b821180613a86575b613a48901515612ab1565b60280180602811611fa457818303838111611fa45703613a7b57613a6b92613add565b90916001600160a01b0390911690565b505050600090600090565b50828101602001516001600160f01b03191661060f60f31b14613a3d565b50818111613a28565b63ffffffff90818111613abe571690565b604490604051906306dfcc6560e41b8252602060048301526024820152fd5b929092613ae98461299a565b831180613b6b575b613b03613b0b91949293941515612ab1565b6000956129a8565b915b818310613b1d5750505060019190565b9092919360ff613b3e613b396020888601015160ff60f81b1690565b613b89565b1690600f8211613b5f5790613b54600192612ac7565b019401919290613b0d565b50600094508493505050565b50602084820101516001600160f01b03191661060f60f31b14613af1565b60f81c602f811180613bf1575b15613ba557602f190160ff1690565b6060811180613be7575b15613bbe576056190160ff1690565b6040811180613bdd575b15613bd7576036190160ff1690565b5060ff90565b5060478110613bc8565b5060678110613baf565b50603a8110613b9656fec65a7bb8d6351c1cf70c95a316cc6a92839c986682d98bc35f958f4883f9d2a8a164736f6c6343000816000ac65a7bb8d6351c1cf70c95a316cc6a92839c986682d98bc35f958f4883f9d2a80553476bf02ef2726e8ce5ced78d63e26e602e4a2257b1f559418e24b4633997",
  "linkReferences": {},
  "deployedLinkReferences": {}
}